:020000040800F2
:1000000000000220F52A0008FD080008FF0800088B
:1000100001090008030900080509000800000000A4
:1000200000000000000000000000000007090008B8
:1000300009090008000000000B0900080D0900086C
:10004000452B0008452B0008452B0008452B0008D0
:10005000452B0008452B0008452B0008452B0008C0
:10006000452B0008452B0008452B0008452B0008B0
:10007000452B0008452B0008452B0008452B0008A0
:10008000452B0008452B0008452B0008452B000890
:10009000452B0008452B0008452B0008452B000880
:1000A000452B0008452B0008452B0008452B000870
:1000B000452B0008452B0008452B0008452B000860
:1000C000452B0008452B0008452B0008452B000850
:1000D000452B0008452B0008452B0008452B000840
:1000E00015090008452B0008452B0008452B000882
:1000F000452B0008452B0008452B0008452B000820
:10010000452B0008452B0008452B0008452B00080F
:10011000452B0008452B0008452B0008452B0008FF
:10012000452B0008452B0008452B0008452B0008EF
:10013000452B0008452B0008452B0008452B0008DF
:10014000452B0008452B0008452B0008452B0008CF
:10015000452B0008452B0008452B0008452B0008BF
:10016000452B0008452B0008452B0008452B0008AF
:10017000452B0008452B0008452B0008452B00089F
:10018000452B0008452B0008452B0008452B00088F
:10019000452B000800000000452B0008452B0008F7
:1001A000452B0008452B0008452B0008452B00086F
:1001B000452B0008452B0008452B0008452B00085F
:1001C000452B0008452B0008452B0008452B00084F
:0801D000452B0008452B000837
:1001D8000348044B834202D0034B03B118477047CE
:1001E8000C0000200C000020000000000548064913
:1001F800091A891001EBD171491002D0034B03B1E0
:10020800184770470C0000200C0000200000000078
:1002180010B5064C237843B9FFF7DAFF044B13B146
:100228000448AFF300800123237010BD0C000020A8
:1002380000000000482B000808B5044B1BB1044916
:100248000448AFF30080BDE80840CFE70000000095
:1002580010000020482B000870B50D4E0D4D761B80
:10026800B61006D00024013455F8043B9847A6423E
:10027800F9D1094E094D761B02F062FCB61006D082
:100288000024013455F8043B9847A642F9D170BDC3
:10029800342D0008342D0008382D0008342D0008AE
:1002A800F0B4860743D0541E002A3ED0CAB2034693
:1002B80002E014F1FF3438D303F8012B9D07F8D17D
:1002C800032C2BD9CDB245EA05250F2C45EA054567
:1002D80016D9A4F110073F0903F1200606EB07160B
:1002E80003F1100242E9045542E902551032B242C4
:1002F800F8D104F00F040137032C03EB07130DD9D1
:100308001E462246043A032A46F8045BFAD8221FFE
:1003180022F003020432134404F003042CB1C9B2DE
:100328001C4403F8011B9C42FBD1F0BC70471446E7
:100338000346C5E753B94AB9002908BF00281CBFBE
:100348004FF0FF314FF0FF3000F072B9ADF1080CFB
:100358006DE904CE00F006F8DDF804E0DDE90223DB
:1003680004B070472DE9F047089E04468846002BE4
:100378004BD18A42154667D9B2FA82F24AB1C2F124
:10038800200701FA02F320FA07F7954047EA030825
:1003980094404FEA154E230CB8FBFEF71FFA85FC74
:1003A8000EFB178843EA084307FB0CF1994209D969
:1003B800EB1807F1FF3080F01B81994240F2188159
:1003C800023F2B445B1AA4B2B3FBFEF00EFB1033C2
:1003D80044EA034400FB0CFCA44509D92C1900F19C
:1003E800FF3380F00781A44540F2048102382C4491
:1003F80040EA0740A4EB0C0400271EB1D4400023B8
:10040800C6E900433946BDE8F0878B4209D9002E7A
:1004180000F0EB800027C6E9000138463946BDE800
:10042800F087B3FA83F7002F47D18B4202D3824279
:1004380000F2FA80841A61EB030301209846002E2B
:10044800E0D0C6E90048DDE702B9FFDEB2FA82F281
:10045800002A40F08F80491B4FEA154E1FFA85F895
:100468000127B1FBFEFC230C0EFB1C1143EA0143E0
:1004780008FB0CF1994207D9EB180CF1FF3002D2B6
:10048800994200F2CD808446591AA3B2B1FBFEF01E
:100498000EFB101443EA044408FB00F8A04507D9F2
:1004A8002C1900F1FF3302D2A04500F2B68018469D
:1004B800A4EB080440EA0C409FE7C7F1200CBB40BE
:1004C80022FA0CFE4EEA030E01FA07F420FA0CF5A4
:1004D80021FA0CF34FEA1E482543B3FBF8F92C0C1C
:1004E80008FB19331FFA8EFA44EA034309FB0AF49E
:1004F8009C4202FA07F200FA07F10BD91EEB03033C
:1005080009F1FF3080F087809C4240F28480A9F195
:10051800020973441B1BADB2B3FBF8F008FB1033A0
:1005280045EA034400FB0AFAA24508D91EEB040475
:1005380000F1FF336BD2A24569D90238744440EA0E
:100548000940A0FB0289A4EB0A044C45C2464B466D
:1005580054D351D0002E69D0B1EB0A0564EB0304E3
:1005680004FA0CFCFD40FC404CEA0505C6E90054C1
:10057800002747E7C2F1200320FA03F7954001FA64
:1005880002F021FA03F34FEA154E3843010CB3FB8E
:10059800FEF71FFA85F80EFB173341EA034107FB04
:1005A80008F38B4204FA02F407D9691807F1FF3CF3
:1005B8002FD28B422DD9023F2944CB1A81B2B3FBEB
:1005C800FEF00EFB103341EA034100FB08F38B42B7
:1005D80007D9691800F1FF3C17D28B4215D90238A8
:1005E8002944C91A40EA07473BE73746304609E736
:1005F8000746E7E61846FBE64145ABD2B8EB020AE8
:1006080069EB0E0201381346A4E76046E9E718468D
:1006180095E76746D1E781467CE702382C4447E7EF
:10062800ACF1020C2B442FE7384608E73746E9E6D9
:10063800704700BF30B5A9B0382200211AA8FFF7CB
:100648002FFE002415941694179418941994542284
:1006580021466846FFF724FE204602F009F90223E6
:100668001A934FF480721D9240221E922193229376
:1006780004252395552224922593269327931AA877
:1006880001F00CF90F23159303231693179418946C
:100698001994294615A801F061FC202300930694BB
:1006A800684601F0E3FD29B030BD08B501F094F8C3
:1006B800FFF7C0FF00F01AF800F0B8F80122202177
:1006C8004FF0904000F0ACFA4FF4967001F0A6F8A5
:1006D800002220214FF0904000F0A2FA4FF49670CB
:1006E80001F09CF8EAE770477047000070B58CB0DD
:1006F80000240794089409940A940B94454BDA6CE7
:1007080042F00402DA64DA6C02F004020192019AFF
:10071800DA6C42F02002DA64DA6C02F0200202920B
:10072800029ADA6C42F04002DA64DA6C02F04002B3
:100738000392039ADA6C42F00102DA64DA6C02F08E
:1007480001020492049ADA6C42F00202DA64DA6C6A
:1007580002F002020592059ADA6C42F00802DA64A5
:10076800DB6C03F008030693069B224620214FF01A
:10077800904000F055FA4FF400530793264B089326
:100788000994264E07A9304600F0E2F84FF480633A
:10079800079303250895099407A9214800F0D8F87C
:1007A80041F6FF7307930895099407A9304600F0AE
:1007B800CFF849F6D37307930895099407A94FF022
:1007C800904000F0C5F8202307930123089309946B
:1007D8000A9407A94FF0904000F0BAF84FF6F77363
:1007E80007930895099407A90E4800F0B1F8042367
:1007F80007930895099407A90B4800F0A9F8224621
:100808002146282002F0F0F8282002F033F90CB035
:1008180070BD00BF00100240000011100008004821
:100828000018004800040048000C004808B51648A5
:10083800164B03604FF4E133436000238360C360C9
:1008480003610C22426183610362836200F0EAFD66
:1008580070B900210C4800F0DBFE60B900210A489D
:1008680000F034FF50B9084800F090FE48B908BDC0
:10087800FFF739FFEDE7FFF736FFEFE7FFF733FF45
:10088800F1E7FFF730FFF2E7280000200080004082
:1008980000B589B000230393049305930693079347
:1008A8000268134B9A4202D009B05DF804FB03F5C5
:1008B800C833DA6D42F00102DA65DA6D02F001023E
:1008C8000192019ADA6C42F00102DA64DB6C03F0FF
:1008D80001030293029B0C230393022204920793C1
:1008E8000DEB03014FF0904000F032F8DCE700BF59
:1008F800008000407047FEE7FEE7FEE7FEE770472E
:100908007047704708B500F077FF08BD08B54FF489
:10091800005000F0A1F908BD00B583B00B4B1A6E6A
:1009280042F001021A661A6E02F001020092009A61
:100938009A6D42F080529A659B6D03F08053019343
:10094800019B02F02BF803B05DF804FB0010024095
:100958002DE9F04383B006460C46B0F1904F1AD00B
:10096800A94B984217D003F58063984213D003F53A
:10097800806398420FD003F5806398420BD003F54B
:100988008063984207D003F58063984203D0B12171
:100998009E48FFF7A9FE23689AB212B11B0C1B04EC
:1009A8001BB1B2219948FFF79FFE6368012B1ED93E
:1009B800112B1CD0022B1AD0122B18D0944A934218
:1009C80015D002F58012934211D002F5801293429D
:1009D8000DD0A2F5F812934209D002F58012934285
:1009E80005D002F58012934201D0032B04D1A368ED
:1009F800022B06D800254AE0B3218448FFF774FE8D
:100A0800F5E7B4218148FFF76FFEF3E7C4217F487B
:100A1800FFF76AFE52E0DD217C48FFF765FE98E0AB
:100A2800052300E000238B4003430232794941F853
:100A38002230794B1A68FB4303EA0201606810F41C
:100A4800803F01D047EA0201734A1160526803EA05
:100A58000201606810F4003F01D047EA02016E4AC3
:100A68005160926803EA0201606810F4801F01D0A7
:100A780047EA0201684A9160D2681340616811F43C
:100A8800001F01D047EA0203634AD3600135276893
:100A980037FA05F300F0B5804FF0010808FA05F8B9
:100AA80018EA0707F2D063685A1E012A03D9112BE6
:100AB80001D0122B16D1E368032BA7D8B2686900BE
:100AC80003238B4022EA0302E3688B401343B3609D
:100AD800736823EA08086368C3F30013AB4043EA6A
:100AE80008037360F2684FEA45094FF0030808FAF3
:100AF80009F86FEA080808EA0202A36803FA09F38A
:100B08001343F3606368022B01D0122B31D1B6F185
:100B1800904F1AD03C4B9E4217D003F580639E42FB
:100B280013D003F580639E420FD003F580639E4285
:100B38000BD003F580639E4207D003F580639E4285
:100B480003D0DC213148FFF7CFFD23690F2B3FF697
:100B580062AFEA08083256F8220005F00703990048
:100B68000F238B4020EA030023698B40034346F898
:100B78002230336808EA0308636803F0030303FAC2
:100B880009F343EA08033360636813F0805F3FF4B6
:100B98007DAF224B1A6E42F001021A661B6E03F0FB
:100BA80001030193019BAA08911C1A4B53F82100D9
:100BB80005F0030399000F238B4020EA0300B6F1E8
:100BC800904F3FF42FAF104B9E4212D003F5806335
:100BD8009E4210D003F580639E420ED003F58063D9
:100BE8009E420CD003F580639E423FF419AF062362
:100BF80019E7012317E7022315E7032313E7042363
:100C080011E703B0BDE8F08300040048702B00082A
:100C180000001110000001400004014000100240D3
:100C280070B5054614460E4621B1012C08D86CB99A
:100C3800AE6270BD40F29D110548FFF755FDF4E71F
:100C48004FF4CF710248FFF74FFDF0E7AE61F0E7D0
:100C5800702B00087047000008B5054B5B6903421C
:100C680000D108BD024B5861FFF7F4FFF9E700BF58
:100C7800000401402DE9F843044642689E4B9A421D
:100C880000F2A380A368B3F1805F04D01BB1B3F571
:100C9800805F40F0A0802268984B9A4200F0A180C3
:100CA800E368B3F5805F07D033B1B3F5405F03D095
:100CB800B3F5005F40F0A380236A1BB1B3F5006F62
:100CC80040F0A380236933B1B3F5806F03D0B3F547
:100CD800C06F40F0A080636933F00C0200D123B9E3
:100CE80040F649318648FFF7FFFCA3694BB1B3F5DD
:100CF800807F06D0B3F5007F03D0B3F5407F40F086
:100D08009080E3691BB1B3F5004F40F09080636AAF
:100D18000B2B00F29280A368226913436269134384
:100D2800E2691343626E134321680868754A0240FA
:100D38001A430A602268536823F44053E1680B435E
:100D48005360A16922686D4B9A4201D0236A194306
:100D5800936823F06E4323F430630B439360226857
:100D6800D36A23F00F03616A0B43D3622368664A90
:100D7800934268D0654A934279D0654A934200F01D
:100D88008F80644A934200F0A180634A934200F046
:100D9800C5805A4A934200F0DA80102257498B42A4
:100DA80000F0FA80E369B3F5004F00F03A81082AB1
:100DB80000F2A681DFE812F06B018D016901A40140
:100DC8009001A401A401A401930140F63C314C48D0
:100DD800FFF78AFC56E740F63D314948FFF784FCA7
:100DE80059E7E368002B3FF46DAFB3F5005F3FF4BC
:100DF80069AF4FF434614248FFF776FC62E740F68A
:100E080044313F48FFF770FC56E740F645313C480F
:100E1800FFF76AFC56E740F648313948FFF764FCAB
:100E280059E740F64A313648FFF75EFC69E740F675
:100E38004B313348FFF758FC69E740F64C313048EE
:100E4800FFF752FC67E702F55842D2F8882002F013
:100E58000302032A09D8DFE802F0020493060122FC
:100E68009CE704229AE7082298E7102296E702F501
:100E7800E632D2F8882002F00C020C2A0ED8DFE8FD
:100E880002F0070D0D0D090D0D0D810D0D0D0B0057
:100E9800002283E7042281E708227FE710227DE70A
:100EA80002F5E432D2F8882002F03002102A09D084
:100EB80005D9202A68D0302A06D108226EE71AB947
:100EC80000226BE7042269E7102267E702F5E232A5
:100ED800D2F8882002F0C002402A09D005D9802A19
:100EE80054D0C02A06D1082258E71AB9002255E77B
:100EF800042253E7102251E7301A1E0100800040F7
:100F0800A82B0008F369FFCF0038014000440040D7
:100F180000480040004C00400050004002F5E0321C
:100F2800D2F8882002F44072B2F5807F0BD007D93E
:100F3800B2F5007F2CD0B2F5407F06D108222DE70C
:100F48001AB900222AE7042228E7102226E702F528
:100F5800C832D2F8882002F44062B2F5806F0BD014
:100F680007D9B2F5006F15D0B2F5406F06D1082247
:100F780014E71AB9002211E704220FE710220DE73F
:100F880002220BE7022209E7022207E7022205E70D
:100F9800022203E7022201E7082A00F2A380DFE821
:100FA80002F008A110A10DA1A1A105004FF4004075
:100FB80008E001F037F928B9002080E000F08AFF46
:100FC800F9E75248626A524B33F81220B0FBF2F349
:100FD800656805EB4501994200F28680B3EB053F51
:100FE80000F284804FF0000892B200234146FFF7D8
:100FF800A1F90F0247EA1067060268082A46434625
:1010080016EB000847F1000940464946FFF792F9F8
:10101800A0F540723F4B9A426AD82368D8600020F6
:101028004DE0082A66D8DFE802F0072705652A653B
:1010380065652D00354803E001F0F4F800285BD021
:10104800626A334B33F81230B0FBF3F0626853082E
:1010580003EB4003B3FBF2F39BB2A3F110014FF68D
:10106800EF7291424AD823F00F02C3F342031343AD
:101078002268D360002022E001F0E6F8DEE700F005
:1010880029FFDBE74FF40040DAE7204802E001F0EF
:10109800C9F8B8B3626A1E4B33F81230B0FBF3F0EC
:1010A800636800EB5300B0FBF3F080B2A0F11002CC
:1010B8004FF6EF739A4227D82368D860002001239F
:1010C800A4F86A30A4F868300023E3662367BDE813
:1010D800F88301F0B9F8DCE700F0FCFED9E74FF43B
:1010E8000040D7E70120EAE70120E8E70120E6E72A
:1010F8000120E4E70120E2E70020E0E70120DEE745
:101108000120DCE70020DAE70120D8E70024F4001A
:10111800E02B0008FFFC0F0010B50446836AFF2B84
:1011280000F2A180A36A13F0010F0CD0E36A1BB18F
:10113800B3F5003F40F09D802268536823F40033E4
:10114800E16A0B435360A36A13F0020F0CD0236BC0
:101158001BB1B3F5803F40F092802268536823F4B6
:101168008033216B0B435360A36A13F0040F0CD038
:10117800636B1BB1B3F5802F40F0878022685368FA
:1011880023F48023616B0B435360A36A13F0080FA9
:101198000BD0A36B13B1B3F5004F7CD12268536811
:1011A80023F40043A16B0B435360A36A13F0100FA1
:1011B8000BD0E36B13B1B3F5805F72D122689368EB
:1011C80023F48053E16B0B439360A36A13F0200F61
:1011D8000BD0236C13B1B3F5005F68D12268936814
:1011E80023F40053216C0B439360A36A13F0400F60
:1011F80028D02368434A934214D0A2F574429342FC
:1012080010D002F5806293420CD002F580629342BE
:1012180008D002F58062934204D040F63D413A4836
:10122800FFF762FA636C13B1B3F5801F45D12268EA
:10123800536823F48013616C0B435360636CB3F5FC
:10124800801F40D0A36A13F0800F0BD0E36C13B15A
:10125800B3F5002F50D12268536823F40023E16CC2
:101268000B43536010BD40F60E412748FFF73CFA88
:1012780058E740F613412448FFF736FA5CE740F692
:101288001A412148FFF730FA67E740F621411E4826
:10129800FFF72AFA72E740F628411B48FFF724FABD
:1012A8007CE740F62F411848FFF71EFA86E740F61C
:1012B80036411548FFF718FA90E740F63E411248C4
:1012C800FFF712FAB3E7A36C43B1B3F5001F05D0DB
:1012D800B3F5800F02D0B3F5C00F07D12268536869
:1012E80023F4C003A16C0B435360ABE740F64341C2
:1012F8000548FFF7F9F9F1E740F64B410248FFF7D7
:10130800F3F9A8E700380140A82B00082DE9F041BF
:1013180004460F4616469846069D2368DB6937EA59
:1013280003030CBF01230023B3423FD1B5F1FF3FB4
:10133800F3D000F06DFAA0EB0800A84222D80DB354
:1013480023681A6812F0040FE7D0DA6912F4006F04
:10135800E3D04FF400621A622268136823F4D07352
:1013680013602268936823F0010393602023C4F874
:101378008030C4F88430C4F88830002384F87C3086
:10138800032014E02268136823F4D07313602268E2
:10139800936823F0010393602023C4F88030C4F8D5
:1013A8008430002384F87C30032000E00020BDE86E
:1013B800F08130B583B004460023C0F8883000F0CF
:1013C80027FA054623681B6813F0080F0ED1236817
:1013D8001B6813F0040F17D12023C4F88030C4F819
:1013E8008430002084F87C0003B030BD6FF07E4369
:1013F8000093034600224FF400112046FFF786FFB2
:101408000028E4D00320EFE76FF07E4300932B46DB
:1014180000224FF480012046FFF778FF0028DBD038
:101428000320E1E7002870D010B504468369002B3B
:1014380043D00368364A934218D0A2F574429342C7
:1014480014D002F58062934210D002F58062934274
:101458000CD002F58062934208D002F540529342C4
:1014680004D040F235112B48FFF73EF9D4F880300C
:10147800002B40D02423C4F880302268136823F05E
:10148800010313602046FFF7F5FB012814D0A36A77
:10149800002B36D12268536823F4904353602268A6
:1014A800936823F02A0393602268136843F00103CA
:1014B80013602046FFF77DFF10BD0368144A93426E
:1014C800D4D0A2F574429342D0D002F58062934200
:1014D800CCD002F580629342C8D002F58062934274
:1014E800C4D002F540529342C0D04FF49D710948D0
:1014F800FFF7FAF8BAE784F87C302046FFF7C8F916
:10150800B8E72046FFF708FEC4E70120704700BF90
:1015180000380140A82B000810B485B002461A4BC9
:1015280093E8030004AC04E903006C46083393E82D
:10153800030084E80300536EFBB111688B68C3F3A2
:101548004263886804A901EB507010F8081CC900B0
:1015580010F8100C91FBF0F1A2F86A1004A90B44E2
:1015680013F8081CC90013F8103C91FBF3F3A2F818
:10157800683005B05DF8044B70470123A2F86A3063
:10158800A2F86830F5E700BF602B000810B50446E4
:1015980003681D4A934218D0A2F57442934214D0AE
:1015A80002F58062934210D002F5806293420CD01B
:1015B80002F58062934208D002F54052934204D06B
:1015C80040F211211148FFF78FF894F87C30012B75
:1015D80017D0012384F87C302423C4F88030226893
:1015E8001368116821F00101116023F000530020F5
:1015F8006066226813602023C4F8803084F87C0079
:1016080010BD0220FCE700BF00380140F82B00089D
:1016180070B504460D4603682A4A934218D0A2F5CD
:101628007442934214D002F58062934210D002F5BE
:10163800806293420CD002F58062934208D002F592
:101648004052934204D040F23F211F48FFF74CF824
:1016580075B1B5F1005F0BD0B5F1804F08D0B5F189
:10166800C04F05D0B5F1004F02D0B5F1204F21D1C0
:1016780094F87C30012B23D0012384F87C30242378
:10168800C4F8803023681E681A6822F001021A60C4
:101698002368996821F06041294399602046FFF743
:1016A8003BFF23681E602023C4F88030002084F8A4
:1016B8007C0070BD4FF410710348FFF715F8D7E7A9
:1016C8000220F6E700380140F82B000870B5044600
:1016D8000D4603682A4A934218D0A2F574429342F1
:1016E80014D002F58062934210D002F580629342D2
:1016F8000CD002F58062934208D002F54052934222
:1017080004D04FF41C711F48FEF7EEFF75B1B5F118
:10171800007F0BD0B5F1806F08D0B5F1C06F05D050
:10172800B5F1006F02D0B5F1206F21D194F87C306B
:10173800012B23D0012384F87C302423C4F8803083
:1017480023681E681A6822F001021A6023689968E3
:1017580021F06061294399602046FFF7DDFE236888
:101768001E602023C4F88030002084F87C0070BDFF
:1017780040F271210348FEF7B7FFD7E70220F6E7EA
:1017880000380140F82B0008104B1B680BB90120EA
:10179800704710B504464FF47A70B0FBF3F30C4A67
:1017A8001068B0FBF3F001F07DF968B90F2C01D98E
:1017B80001200AE0002221464FF0FF3001F014F921
:1017C800044B1C60002000E0012010BD0000002038
:1017D800080000200400002010B5032001F0E6F8FE
:1017E8000020FFF7D1FF10B10124204610BD0446A8
:1017F800FFF792F8F9E70000034A136803490968FC
:101808000B441360704700BFB400002000000020A4
:10181800014B1868704700BFB400002038B5044673
:10182800FFF7F6FF0546B4F1FF3F02D0044B1B68F3
:101838001C44FFF7EDFF401BA042FAD338BD00BFA0
:1018480000000020124AD36803F00303D068C0F3F5
:1018580003100130032B11D00E4BB3FBF0F30C4AED
:10186800D068C0F3062000FB03F0094BDB68C3F324
:10187800416301335B00B0FBF3F07047064BB3FBE9
:10188800F0F3D068C0F3062000FB03F0EDE700BFDB
:10189800001002400024F40000366E01002800F019
:1018A800098370B582B00446036813B113F02F0F93
:1018B80038D0236813F0010F4BD063682BB1B3F510
:1018C800803F02D0B3F5A02F32D1B24A936803F01B
:1018D8000C03D26802F003020C2B2FD0082B2FD058
:1018E8006368B3F5803F63D0B3F5A02F66D0A94BEA
:1018F8001A6822F480321A601A6822F480221A6068
:101908006368002B67D0FFF783FF0546A14B1B6870
:1019180013F4003F1DD1FFF77BFF401B6428F5D966
:101928000320D0E240F243119B48FEF7DDFEC0E7FA
:1019380040F249119848FEF7D7FEC6E7032ACDD1F1
:10194800944B1B6813F4003F03D06368002B00F02E
:10195800B382236813F0020F72D0E36813B1B3F5B2
:10196800807F47D123697F2B4AD88A4A936803F03E
:101978000C03D26802F003020C2B47D0042B47D08B
:10198800E368002B00F08680824A136843F4807372
:101998001360FFF73DFF05467E4B1B6813F4806F0D
:1019A8006FD1FFF735FF401B0228F5D903208AE2E3
:1019B800784A136843F480331360A1E703F1804346
:1019C800A3F53C331A6842F480221A601A6842F47C
:1019D80080321A6094E7FFF71BFF05466D4B1B68C2
:1019E80013F4003FB5D0FFF713FF401B6428F5D967
:1019F800032068E24FF4BF716748FEF775FEB1E750
:101A080040F27F116448FEF76FFEAEE7022AB5D1B7
:101A1800604B1B6813F4806F03D0E368002B00F061
:101A28004D825C4A536823F0FE43216943EA01630F
:101A380053605A4B1868FFF7A7FE002840F0408211
:101A4800236813F0080F56D06369012B36D86369F1
:101A5800002B39D04F4AD2F8943043F00103C2F832
:101A68009430FFF7D5FE05464A4BD3F8943013F06F
:101A7800020F40D1FFF7CCFE401B0228F4D9032007
:101A880021E2444A536823F0FE43216943EA016393
:101A98005360D5E73F4A136823F480731360FFF758
:101AA800B7FE05463B4B1B6813F4806FC8D0FFF7A1
:101AB800AFFE401B0228F5D9032004E24FF4E3717E
:101AC8003548FEF711FEC2E7324AD2F8943023F0C7
:101AD8000103C2F89430FFF79BFE05462D4BD3F85F
:101AE800943013F0020F06D0FFF792FE401B022835
:101AF800F4D90320E7E1236813F0040F00F08F8086
:101B0800A368012B01D9052B3BD1224B9B6D13F008
:101B1800805F3CD11F4B9A6D42F080529A659B6D55
:101B280003F080530193019B01251D4B1B6813F49F
:101B3800807F37D0A368012B48D0052B4ED0154B9A
:101B4800D3F8902022F00102C3F89020D3F8902017
:101B580022F00402C3F89020A368002B4CD0FFF7B2
:101B680057FE06460B4BD3F8903013F0020F55D1B1
:101B7800FFF74EFE801B41F288339842F2D90320CA
:101B8800A1E14FF4F9710448FEF7AEFDBDE7002569
:101B9800CBE700BF00100240342C000804000020EE
:101BA80000700040B54A136843F480731360FFF770
:101BB8002FFE0646B14B1B6813F4807FBAD1FFF79E
:101BC80027FE801B0228F5D903207CE1AC4AD2F815
:101BD800903043F00103C2F89030BDE7A84BD3F82A
:101BE800902042F00402C3F89020D3F8902042F0ED
:101BF8000102C3F89020AFE7FFF70AFE0646A04BA4
:101C0800D3F8903013F0020F08D0FFF701FE801BC5
:101C180041F288339842F2D9032054E1FDB9236890
:101C280013F0200F3ED0A369012B1ED8A36913B36C
:101C3800934AD2F8983043F00103C2F89830FFF77E
:101C4800E7FD05468E4BD3F8983013F0020F29D1E3
:101C5800FFF7DEFD401B0228F4D9032033E1884A50
:101C6800936D23F080539365D9E740F23921854875
:101C7800FEF73AFDDAE7824AD2F8983023F00103FA
:101C8800C2F89830FFF7C4FD05467D4BD3F898306D
:101C980013F0020F06D0FFF7BBFD401B0228F4D952
:101CA800032010E1E369022B45D8E369002B00F01B
:101CB8000981734A926802F00C020C2A00F0B9807C
:101CC800022B40F09680236A1BB1022B01D0032B14
:101CD80037D1636A013B0F2B39D8A36A083B772BAE
:101CE8003BD8E36A023B1D2B3DD8236B022B05D062
:101CF800042B03D0062B01D0082B3AD1636B022B9F
:101D080005D0042B03D0062B01D0082B37D15C4A11
:101D1800136823F080731360FFF77AFD0546584B6C
:101D28001B6813F0007F30D0FFF772FD401B0228BC
:101D3800F5D90320C7E040F262215248FEF7D4FCEF
:101D4800B3E74FF41B714F48FEF7CEFCC1E740F2F2
:101D58006D214C48FEF7C8FCBFE740F26E214948A8
:101D6800FEF7C2FCBDE740F26F214648FEF7BCFC17
:101D7800BBE74FF41C714348FEF7B6FCBEE740F2E0
:101D880071214048FEF7B0FCC1E73D4AD3683E499F
:101D98001940236A606A013843EA0013A06A43EADB
:101DA8000023206B4008013843EA4053606B400829
:101DB800013843EA4063E06A43EAC0630B43D360F7
:101DC800136843F080731360D36843F08073D36063
:101DD800FFF71EFD04462A4B1B6813F0007F06D14F
:101DE800FFF716FD001B0228F5D903206BE0002041
:101DF80069E0234B1A6822F080721A60DA6822F0D0
:101E08000302DA60DA6822F0887222F48032DA603B
:101E1800FFF7FEFC04461A4B1B6813F0007F06D040
:101E2800FFF7F6FC001B0228F5D903204BE0002041
:101E380049E0012B49D0124BDB6803F00301226A09
:101E4800914201D001203EE003F0F002616A0139BD
:101E5800B2EB011F01D0012035E003F4FE42A16A74
:101E6800B2EB012F01D001202DE003F07842E16AA6
:101E7800B2EBC16F0AD0012025E000BF007000401E
:101E880000100240342C00080C809F0103F4C001AC
:101E9800226B5208013AB1EB425F01D0012012E0F7
:101EA80003F0C063626B5208013AB3EB426F0ED085
:101EB800012008E001207047012004E0012002E031
:101EC800012000E0002002B070BD0120FBE70020E7
:101ED800F9E700BF1E4B9B6803F00C03042B33D0BB
:101EE8001B4B9B6803F00C03082B2FD0184B9B68E7
:101EF80003F00C030C2B01D000207047144BDA6858
:101F080002F00302DB68C3F303130133032A11D180
:101F18001048B0FBF3F30E4AD068C0F3062000FB6C
:101F280003F00B4BDB68C3F3416301335B00B0FB89
:101F3800F3F070470848B0FBF3F3054AD068C0F3E4
:101F4800062000FB03F0ECE70348704701487047A0
:101F58000010024000366E010024F400002800F052
:101F68004881F8B504460D46036813F00F0F02D0F8
:101F780033F00F0304D040F20A31A048FEF7B4FB57
:101F88000F2D12D89E4B1B6803F00F03AB4212D2E1
:101F98009B4A136823F00F032B431360136803F065
:101FA8000F03AB4207D00120F0E040F20B31934819
:101FB800FEF79AFBE6E7236813F0010F6BD063681E
:101FC800013B022B18D86368032B1BD0022B39D096
:101FD8008C4B1B6813F4806F00F00D81FFF77AFFBC
:101FE800894B98423BD9874A936823F0F00343F022
:101FF80080039360802733E040F222317F48FEF768
:1020080073FBE0E77F4B1B6813F0007F01D10120D1
:10201800BCE0FFF717FC7C4B98421AD9794B9B68B8
:1020280013F0F00F05D0236813F0020F13D0A36844
:102038009BB9744A936823F0F00343F080039360DC
:1020480080270DE06F4B1B6813F4003FC6D10120B9
:102058009CE0002704E0002702E0002700E00027BA
:10206800684A936823F0030361680B439360FFF7A2
:10207800CFFB0646634B9B6803F00C036268B3EB27
:10208800820F09D0FFF7C4FB801B41F288339842C6
:10209800F0D903207AE00027236813F0020F7CD0E0
:1020A80013F0040F04D0574A936843F4E063936035
:1020B800236813F0080F06D0524A936823F47C5320
:1020C80043F4E0639360A3687BB1802B0DD0902B21
:1020D8000BD0A02B09D0B02B07D0C02B05D0D02B0C
:1020E80003D0E02B01D0F02B51D1464A936823F05E
:1020F800F003A1680B439360414B1B6803F00F0387
:10210800AB4252D8236813F0040F14D0E3685BB1D4
:10211800B3F5806F08D0B3F5A06F05D0B3F5C06FE5
:1021280002D0B3F5E06F58D1364A936823F4E063E0
:10213800E1680B439360236813F0080F15D02369F7
:102148005BB1B3F5806F08D0B3F5A06F05D0B3F5D8
:10215800C06F02D0B3F5E06F45D12A4A936823F4E3
:102168006053216943EAC1039360FFF7B3FE254B2F
:102178009B68C3F30313254AD35C03F01F03D840BD
:10218800234B1860234B1868FFF7FEFAF8BD40F29E
:1021980079311A48FEF7A8FAA7E7002FACD0194AF8
:1021A800936823F0F0039360A6E7154A136823F0B9
:1021B8000F032B431360FFF72BFB0646104B1B68DE
:1021C80003F00F03AB429DD0FFF722FB801B41F2C7
:1021D80088339842F2D90320D8E740F29B31074868
:1021E800FEF782FAA0E740F2A2310448FEF77CFA33
:1021F800B3E7012070470120C8E700BF342C00086E
:10220800002002400010024000B4C404142D00084D
:102218000800002004000020014B1868704700BF28
:102228000800002008B5FFF7F7FF054B9B68C3F3CC
:102238000223044AD35C03F01F03D84008BD00BF43
:1022480000100240242D000808B5FFF7E5FF054BF4
:102258009B68C3F3C223044AD35C03F01F03D8402E
:1022680008BD00BF00100240242D0008F0B583B05F
:1022780004460368C3F31303002B33D0236813F415
:10228800002F00F08580236D43B1B3F5807F05D022
:10229800B3F5007F02D0B3F5407F28D1394B9B6D51
:1022A80013F0805F28D1374B9A6D42F080529A65BF
:1022B8009B6D03F080530193019B0126324A1368FA
:1022C80043F480731360FFF7A3FA05462E4B1B688F
:1022D80013F4807F12D1FFF79BFA401B0228F5D92F
:1022E80003250CE085212948FEF7FEF9C6E78D2174
:1022F8002648FEF7F9F9D1E70026DFE7002545BBB8
:10230800204BD3F8903013F4407315D0226D9A42C5
:1023180012D01C4AD2F8903023F44073D2F89010AF
:1023280041F48031C2F89010D2F8901021F4803135
:10233800C2F89010C2F8903013F0010F10D145B9CF
:10234800104AD2F8903023F44073216D0B43C2F841
:102358009030F6B10B4A936D23F08053936518E0E3
:10236800FFF756FA0746074BD3F8903013F0020FE1
:10237800E5D1FFF74DFAC01B41F288339842F2D9F4
:102388000325DCE700100240007000406C2C0008B8
:102398000025236813F0010F10D06368012B04D9BE
:1023A800032B02D0022B40F0C781B64AD2F88830FE
:1023B80023F0030361680B43C2F88830236813F0E5
:1023C800020F11D0A36833B1042B04D00C2B02D018
:1023D800082B40F0B681AB4AD2F8883023F00C03C2
:1023E800A1680B43C2F88830236813F0040F11D09A
:1023F800E36833B1102B04D0302B02D0202B40F0EF
:10240800A581A04AD2F8883023F03003E1680B4355
:10241800C2F88830236813F0080F11D0236933B14C
:10242800402B04D0C02B02D0802B40F09481954AD9
:10243800D2F8883023F0C00321690B43C2F88830F2
:10244800236813F0100F14D063694BB1B3F5807F84
:1024580006D0B3F5407F03D0B3F5007F40F081810B
:10246800884AD2F8883023F4407361690B43C2F874
:102478008830236813F0200F14D0A3694BB1B3F54B
:10248800806F06D0B3F5406F03D0B3F5006F40F00E
:102498006E817C4AD2F8883023F44063A1690B43EB
:1024A800C2F88830236813F0400F11D0E36933B1C4
:1024B800B3F5805F03D0B3F5005F40F05E81714AE9
:1024C800D2F8883023F44053E1690B43C2F88830CE
:1024D800236813F0800F11D0236A33B1B3F5804F0E
:1024E80003D0B3F5004F40F04E81664AD2F88830E9
:1024F80023F44043216A0B43C2F88830236813F45D
:10250800807F11D0636A33B1B3F5803F03D0B3F550
:10251800003F40F03E815B4AD2F8883023F44033D4
:10252800616A0B43C2F88830236813F4003F0CD06B
:10253800A36A022B00F23381524AD2F89C3023F06E
:102548000303A16A0B43C2F89C30236813F4007F8D
:1025580014D0E36A4BB1B3F5802F06D0B3F5002F42
:1025680003D0B3F5402F40F02081464AD2F8883096
:1025780023F44023E16A0B43C2F88830236813F43C
:10258800806F19D0236B4BB1B3F5801F06D0B3F51C
:10259800001F03D0B3F5401F40F00D81394AD2F82F
:1025A800883023F44013216B0B43C2F88830236B27
:1025B800B3F5801F00F00581236813F4006F19D06C
:1025C800636B4BB1B3F5800F06D0B3F5000F03D0A2
:1025D800B3F5400F40F0FA802A4AD2F8883023F445
:1025E8004003616B0B43C2F88830636BB3F5800F0F
:1025F80000F0F280236813F4805F16D0A36B33B128
:10260800B3F1807F03D0B3F1007F40F0EA801D4A28
:10261800D2F8883023F04073A16B0B43C2F888309E
:10262800A36BB3F1807F00F0E280236813F4005FAE
:1026380013D0E36B1BB1B3F1006F40F0DD80114A9A
:10264800D2F8883023F04063E16B0B43C2F888303E
:10265800E36BB3F1006F00F0D580236813F4804F6B
:1026680016D0236C1BB1B3F1006F40F0D080054A3F
:10267800D2F8883023F04063216C0B43C2F88830CD
:10268800236C01E000100240B3F1006F00F0C58038
:10269800236813F4004F16D0636C33B1B3F1805F35
:1026A80003D0B3F1005F40F0BD806F4AD2F88830A4
:1026B80023F04053616C0B43C2F88830636CB3F16C
:1026C800805F00F0B580236813F4803F16D0A36CB8
:1026D80033B1B3F1804F03D0B3F1004F40F0AD8078
:1026E800614AD2F8883023F04043A16C0B43C2F80A
:1026F8008830A36CB3F1804F00F0A580236813F4F1
:10270800802F16D0E36CB3F5801F04D01BB1B3F54E
:10271800001F40F09D80544AD2F89C3023F44013A7
:10272800E16C0B43C2F89C30E36CB3F5001F00F07A
:102738009580284603B0F0BDE2214C48FDF7D4FF50
:1027480033E6EC214948FDF7CFFF44E6F621474838
:10275800FDF7CAFF55E640F201114448FDF7C4FFF2
:1027680065E64FF487714148FDF7BEFF78E64FF400
:102778008D713E48FDF7B8FF8BE64FF492713B48E8
:10278800FDF7B2FF9BE64FF497713848FDF7ACFFB1
:10279800ABE64FF49C713548FDF7A6FFBBE64FF456
:1027A800A2713248FDF7A0FFC6E64FF4A8712F4882
:1027B800FDF79AFFD9E64FF4AD712C48FDF794FF69
:1027C800ECE6D36843F48013D360F5E64FF4B571B3
:1027D8002648FDF789FFFFE6D36843F48013D360EA
:1027E80008E740F27B112148FDF77EFF0FE7D36829
:1027F80043F48013D36018E740F28D111B48FDF7AE
:1028080073FF1CE7D36843F48013D36025E74FF4C4
:10281800CE711648FDF768FF29E7D36843F48013A3
:10282800D36035E74FF4D5711048FDF75DFF3CE7FD
:10283800D36843F48033D36045E740F2BB110B48BB
:10284800FDF752FF4CE7D36843F48033D36055E774
:102858004FF4E7710548FDF747FF5CE7D36843F499
:102868008013D36065E700BF001002406C2C00089D
:1028780010B5044628B1B0F5007F02D0B0F5806FDE
:1028880011D1002C3DD1414B1B6803F4C063B3F553
:10289800806F0DD03D4AD2F8803023F48073C2F89F
:1028A8008030002038E09E213948FDF71DFFE8E719
:1028B800364AD2F8803023F48073C2F88030136827
:1028C80023F4C06343F400731360324B1A68322355
:1028D80003FB02F3304AA2FB03239B0C013300E005
:1028E800013B2A4A526912F4806F01D0002BF7D1BC
:1028F800264B5B6913F4806F01D100200CE00320A4
:102908000AE0B4F5007F08D0204A136823F4C063B6
:1029180043F480631360002010BD1C4B1B6803F454
:10292800C063B3F5806F08D0184AD2F8803043F4FA
:102938008073C2F880300020EEE7144AD2F8803065
:1029480043F48073C2F88030136823F4C06343F4FF
:10295800007313600F4B1A68322303FB02F30E4A0D
:10296800A2FB03239B0C013300E0013B074A526999
:1029780012F4806F01D0002BF7D1044B5B6913F47C
:10298800806F01D10020C7E70320C5E70070004031
:10299800A42C00080800002083DE1B43024A936829
:1029A80043F48043936070470070004010B50446BC
:1029B800C31E042B0FD80A4AD36823F4E0631B0410
:1029C8001B0C240204F4E064234343F0BF6343F484
:1029D8000033D36010BDA7210248FDF785FEEAE762
:1029E80000ED00E0DC2C000870B505460C461646E4
:1029F8000F2A25D80F2C28D81B4BDB68C3F30223DA
:102A0800C3F10702042A28BF0422191D062921D967
:102A1800033B4FF0FF3101FA02F224EA02049C4022
:102A280001FA03F326EA03063443002D14DB2401DC
:102A3800E4B205F1604505F5614585F8004370BDD0
:102A4800BF210A48FDF750FED4E7C0210748FDF72B
:102A58004BFED1E70023DCE705F00F052401E4B2C3
:102A6800034B5C55EBE700BF00ED00E0DC2C0008F1
:102A780014ED00E010B5041E0ADB002C07DB04F09F
:102A88001F02640901239340044A42F8243010BD10
:102A9800D3210348FDF728FEEFE700BF00E100E07F
:102AA800DC2C00080138B0F1807F0AD2064B586050
:102AB800064AF02182F823100020986007221A6045
:102AC80070470120704700BF10E000E000ED00E013
:102AD800054BD3F8882042F47002C3F888204FF0E1
:102AE80000629A60704700BF00ED00E00D4885461F
:102AF8000D480E490E4A002302E0D458C45004334E
:102B0800C4188C42F9D30B4A0B4C002301E0136024
:102B18000432A242FBD3FFF7DBFFFDF79DFBFDF775
:102B2800C4FDFEE700000220000000200C00002089
:102B38003C2D00080C000020B8000020FEE7000033
:102B4800F8B500BFF8BC08BC9E467047F8B500BF92
:082B5800F8BC08BC9E46704762
:102B6000010101030701000008040204080101013A
:102B7000447269766572732F53544D3332473478FB
:102B8000785F48414C5F4472697665722F53726377
:102B90002F73746D3332673478785F68616C5F6768
:102BA00070696F2E63000000447269766572732F3E
:102BB00053544D3332473478785F48414C5F447208
:102BC000697665722F5372632F73746D3332673475
:102BD00078785F68616C5F756172742E63000000C5
:102BE000010002000400060008000A000C001000AA
:102BF0002000400080000001447269766572732FE6
:102C000053544D3332473478785F48414C5F4472B7
:102C1000697665722F5372632F73746D3332673424
:102C200078785F68616C5F756172745F65782E6338
:102C300000000000447269766572732F53544D335F
:102C400032473478785F48414C5F447269766572E8
:102C50002F5372632F73746D3332673478785F68E3
:102C6000616C5F7263632E630000000044726976DA
:102C70006572732F53544D3332473478785F48412F
:102C80004C5F4472697665722F5372632F73746D53
:102C90003332673478785F68616C5F7263635F6555
:102CA000782E6300447269766572732F53544D33E6
:102CB00032473478785F48414C5F44726976657278
:102CC0002F5372632F73746D3332673478785F6873
:102CD000616C5F7077725F65782E6300447269760D
:102CE0006572732F53544D3332473478785F4841BF
:102CF0004C5F4472697665722F5372632F73746DE3
:102D00003332673478785F68616C5F636F727465C3
:102D1000782E6300000000000000000001020304A0
:0C2D20000607080900000000010203047F
:082D2C0040D6FF7F010000000A
:042D34004102000850
:042D38001902000874
:0C2D3C0001000000100000000024F40062
:0400000508002AF5D0
:00000001FF
