:020000040800F2
:100000000080002009290008AB080008AD0800089E
:10001000AF080008B1080008B3080008000000009D
:10002000000000000000000000000000B50800080B
:10003000B708000800000000B9080008BB08000865
:100040005929000859290008592900085929000888
:100050005929000859290008592900085929000878
:100060005929000859290008592900085929000868
:100070005929000859290008592900085929000858
:1000800059290008000000005929000859290008D2
:100090005929000859290008592900085929000838
:1000A0005929000859290008592900085929000828
:1000B0005929000859290008592900085929000818
:1000C0005929000859290008592900085929000808
:1000D00059290008592900085929000859290008F8
:1000E00059290008592900085929000859290008E8
:1000F0005929000859290008592900080000000062
:1001000000000000592900080000000059290008DB
:100110005929000800000000592900085929000841
:1001200059290008592900085929000859290008A7
:1001300059290008000000000000000059290008AB
:10014000592900085929000800000000000000009B
:10015000000000000000000000000000000000009F
:100160000000000000000000000000005929000805
:1001700059290008000000000000000000000000F5
:1001800000000000592900080000000000000000E5
:10019000000000000000000000000000000000005F
:1001A000000000000000000059290008592900083B
:1001B00059290008592900085929000800000000A1
:1001C00000000000592900080000000000000000A5
:0801D000592900085929000813
:1001D8000348044B834202D0034B03B118477047CE
:1001E8000C0000200C000020000000000548064913
:1001F800091A891001EBD171491002D0034B03B1E0
:10020800184770470C0000200C0000200000000078
:1002180010B5064C237843B9FFF7DAFF044B13B146
:100228000448AFF300800123237010BD0C000020A8
:10023800000000005C29000808B5044B1BB1044904
:100248000448AFF30080BDE80840CFE70000000095
:10025800100000205C29000870B50D4E0D4D761B6E
:10026800B61006D00024013455F8043B9847A6423E
:10027800F9D1094E094D761B02F06CFBB61006D079
:100288000024013455F8043B9847A642F9D170BDC3
:10029800482B0008482B00084C2B0008482B000866
:1002A800F0B4860743D0541E002A3ED0CAB2034693
:1002B80002E014F1FF3438D303F8012B9D07F8D17D
:1002C800032C2BD9CDB245EA05250F2C45EA054567
:1002D80016D9A4F110073F0903F1200606EB07160B
:1002E80003F1100242E9045542E902551032B242C4
:1002F800F8D104F00F040137032C03EB07130DD9D1
:100308001E462246043A032A46F8045BFAD8221FFE
:1003180022F003020432134404F003042CB1C9B2DE
:100328001C4403F8011B9C42FBD1F0BC70471446E7
:100338000346C5E753B94AB9002908BF00281CBFBE
:100348004FF0FF314FF0FF3000F072B9ADF1080CFB
:100358006DE904CE00F006F8DDF804E0DDE90223DB
:1003680004B070472DE9F047089E04468846002BE4
:100378004BD18A42154667D9B2FA82F24AB1C2F124
:10038800200701FA02F320FA07F7954047EA030825
:1003980094404FEA154E230CB8FBFEF71FFA85FC74
:1003A8000EFB178843EA084307FB0CF1994209D969
:1003B800EB1807F1FF3080F01B81994240F2188159
:1003C800023F2B445B1AA4B2B3FBFEF00EFB1033C2
:1003D80044EA034400FB0CFCA44509D92C1900F19C
:1003E800FF3380F00781A44540F2048102382C4491
:1003F80040EA0740A4EB0C0400271EB1D4400023B8
:10040800C6E900433946BDE8F0878B4209D9002E7A
:1004180000F0EB800027C6E9000138463946BDE800
:10042800F087B3FA83F7002F47D18B4202D3824279
:1004380000F2FA80841A61EB030301209846002E2B
:10044800E0D0C6E90048DDE702B9FFDEB2FA82F281
:10045800002A40F08F80491B4FEA154E1FFA85F895
:100468000127B1FBFEFC230C0EFB1C1143EA0143E0
:1004780008FB0CF1994207D9EB180CF1FF3002D2B6
:10048800994200F2CD808446591AA3B2B1FBFEF01E
:100498000EFB101443EA044408FB00F8A04507D9F2
:1004A8002C1900F1FF3302D2A04500F2B68018469D
:1004B800A4EB080440EA0C409FE7C7F1200CBB40BE
:1004C80022FA0CFE4EEA030E01FA07F420FA0CF5A4
:1004D80021FA0CF34FEA1E482543B3FBF8F92C0C1C
:1004E80008FB19331FFA8EFA44EA034309FB0AF49E
:1004F8009C4202FA07F200FA07F10BD91EEB03033C
:1005080009F1FF3080F087809C4240F28480A9F195
:10051800020973441B1BADB2B3FBF8F008FB1033A0
:1005280045EA034400FB0AFAA24508D91EEB040475
:1005380000F1FF336BD2A24569D90238744440EA0E
:100548000940A0FB0289A4EB0A044C45C2464B466D
:1005580054D351D0002E69D0B1EB0A0564EB0304E3
:1005680004FA0CFCFD40FC404CEA0505C6E90054C1
:10057800002747E7C2F1200320FA03F7954001FA64
:1005880002F021FA03F34FEA154E3843010CB3FB8E
:10059800FEF71FFA85F80EFB173341EA034107FB04
:1005A80008F38B4204FA02F407D9691807F1FF3CF3
:1005B8002FD28B422DD9023F2944CB1A81B2B3FBEB
:1005C800FEF00EFB103341EA034100FB08F38B42B7
:1005D80007D9691800F1FF3C17D28B4215D90238A8
:1005E8002944C91A40EA07473BE73746304609E736
:1005F8000746E7E61846FBE64145ABD2B8EB020AE8
:1006080069EB0E0201381346A4E76046E9E718468D
:1006180095E76746D1E781467CE702382C4447E7EF
:10062800ACF1020C2B442FE7384608E73746E9E6D9
:10063800704700BF70B58CB00024079408940994E3
:100648000A940B94414BDA6C42F00402DA64DA6CD7
:1006580002F004020192019ADA6C42F02002DA6494
:10066800DA6C02F020020292029ADA6C42F040023E
:10067800DA64DA6C02F040020392039ADA6C42F010
:100688000102DA64DA6C02F001020492049ADA6C6C
:1006980042F00202DA64DA6C02F002020592059A6C
:1006A800DA6C42F00802DA64DB6C03F008030693A4
:1006B800069B224620214FF0904000F0B5FA4FF4F7
:1006C80000530793224B08930994224E07A93046FA
:1006D80000F042F94FF480630793032508950994C5
:1006E80007A91D4800F038F941F6FF7307930895EC
:1006F800099407A9304600F02FF949F6D3730793F8
:100708000895099407A94FF0904000F025F9202397
:1007180007930123089309940A9407A94FF090407E
:1007280000F01AF94FF6F77307930895099407A98B
:100738000A4800F011F9042307930895099407A9BA
:10074800074800F009F90CB070BD00BF0010024066
:100758000000111000080048001800480004004874
:10076800000C004838B50F4C0F4B23604FF4E133B1
:1007780063600025A560E56025610C236361A561C0
:100788002562A562204600F01DFE2946204600F09D
:1007980001FF2946204600F057FF204600F0BCFE26
:1007A80038BD00BF280000200080004030B5A5B04B
:1007B8003822002116A8FFF773FD00241194129423
:1007C800139414941594442221466846FFF768FD53
:1007D800204601F06FFF022316934FF4807219929E
:1007E80040221A921D931E9304251F95552220928C
:1007F80021932293239316A800F0F6FF0F23119359
:1008080003231293139414941594294611A801F004
:100818004BFB202300930594684601F0CDFC25B0DE
:1008280030BD000008B500F091FFFFF7BFFFFFF7EC
:1008380001FFFFF797FF27E00133174A9342FBD9DF
:10084800002220214FF0904000F0EEF9002300E054
:100858000133114A9342FBD9012220214FF09040E5
:1008680000F0E2F9002300E001330C4A9342FBD97F
:10087800002220214FF0904000F0D6F9002300E03C
:100888000133064A9342FBD9012220214FF09040C0
:1008980000F0CAF90023D0E7FEFF0F00FEFFFF00BB
:1008A80070477047FEE7FEE7FEE7FEE770477047D0
:1008B800704708B500F05AFF08BD000000B583B0C6
:1008C8000B4B1A6E42F001021A661A6E02F0010210
:1008D8000092009A9A6D42F080529A659B6D03F0DF
:1008E80080530193019B01F07BFF03B05DF804FB8B
:1008F8000010024000B589B00023039304930593C8
:10090800069307930268134B9A4202D009B05DF828
:1009180004FB03F5C833DA6D42F00102DA65DA6DDB
:1009280002F001020192019ADA6C42F00102DA64E3
:10093800DB6C03F001030293029B0C230393022256
:10094800049207930DEB03014FF0904000F004F878
:10095800DCE700BF008000402DE9F04383B0064685
:100968000C46B0F1904F1AD0A94B984217D003F516
:100978008063984213D003F5806398420FD003F543
:10098800806398420BD003F58063984207D003F543
:100998008063984203D0B1219E48FFF781FF236806
:1009A8009AB212B11B0C1B041BB1B2219948FFF774
:1009B80077FF6368012B1ED9112B1CD0022B1AD08C
:1009C800122B18D0944A934215D002F58012934204
:1009D80011D002F5801293420DD0A2F5F81293427D
:1009E80009D002F58012934205D002F58012934295
:1009F80001D0032B04D1A368022B06D800254AE0B6
:100A0800B3218448FFF74CFFF5E7B4218148FFF78D
:100A180047FFF3E7C4217F48FFF742FF52E0DD219B
:100A28007C48FFF73DFF98E0052300E000238B405A
:100A380003430232794941F82230794B1A68FB4363
:100A480003EA0201606810F4803F01D047EA02011E
:100A5800734A1160526803EA0201606810F4003FAB
:100A680001D047EA02016E4A5160926803EA020126
:100A7800606810F4801F01D047EA0201684A91605B
:100A8800D2681340616811F4001F01D047EA0203DD
:100A9800634AD3600135276837FA05F300F0B5805B
:100AA8004FF0010808FA05F818EA0707F2D063685A
:100AB8005A1E012A03D9112B01D0122B16D1E36833
:100AC800032BA7D8B268690003238B4022EA0302EC
:100AD800E3688B401343B360736823EA08086368CC
:100AE800C3F30013AB4043EA08037360F2684FEAAC
:100AF80045094FF0030808FA09F86FEA080808EAF8
:100B08000202A36803FA09F31343F3606368022B34
:100B180001D0122B31D1B6F1904F1AD03C4B9E42E6
:100B280017D003F580639E4213D003F580639E427D
:100B38000FD003F580639E420BD003F580639E427D
:100B480007D003F580639E4203D0DC213148FFF7CC
:100B5800A7FE23690F2B3FF662AFEA08083256F862
:100B6800220005F0070399000F238B4020EA0300B9
:100B780023698B40034346F82230336808EA0308A8
:100B8800636803F0030303FA09F343EA08033360D5
:100B9800636813F0805F3FF47DAF224B1A6E42F01A
:100BA80001021A661B6E03F001030193019BAA0858
:100BB800911C1A4B53F8210005F0030399000F23E9
:100BC8008B4020EA0300B6F1904F3FF42FAF104B53
:100BD8009E4212D003F580639E4210D003F58063D5
:100BE8009E420ED003F580639E420CD003F58063CD
:100BF8009E423FF419AF062319E7012317E70223A2
:100C080015E7032313E7042311E703B0BDE8F083D6
:100C18000004004884290008000011100000014069
:100C2800000401400010024070B5054614460E4607
:100C380021B1012C08D86CB9AE6270BD40F29D118B
:100C48000548FFF72DFEF4E74FF4CF710248FFF790
:100C580027FEF0E7AE61F0E7842900082DE9F843A4
:100C6800044642689C4B9A4200F29F80A368B3F105
:100C7800805F04D01BB1B3F5805F40F09C80226890
:100C8800964B9A4200F09D80E368B3F5805F07D0E9
:100C980033B1B3F5405F03D0B3F5005F40F09F80F8
:100CA800236A1BB1B3F5006F40F09F80236933B10D
:100CB800B3F5806F03D0B3F5C06F40F09C806369D3
:100CC80033F00C0200D123B940F649318448FFF7CC
:100CD800E7FDA3694BB1B3F5807F06D0B3F5007F7C
:100CE80003D0B3F5407F40F08C80E3691BB1B3F5C6
:100CF800004F40F08C80636A0B2B00F28E80A36853
:100D08002269134362691343E2691343626E134312
:100D180021680868734A02401A430A6022685368C7
:100D280023F44053E1680B435360A16922686B4B7D
:100D38009A4201D0236A1943936823F06E4323F43F
:100D480030630B4393602268D36A23F00F03616A10
:100D58000B43D3622368644A934264D0634A934244
:100D680075D0634A934200F08B80624A934200F048
:100D78009D805A4A934200F0BF80102257498B4207
:100D880000F0DD80E369B3F5004F00F01D81082A0B
:100D980000F28981DFE812F04E0170014C018701F1
:100DA8007301870187018701760140F63C314C4881
:100DB800FFF776FD5AE740F63D314948FFF770FDE9
:100DC8005DE7E368002B3FF471AFB3F5005F3FF4D4
:100DD8006DAF4FF434614248FFF762FD66E740F6B5
:100DE80044313F48FFF75CFD5AE740F645313C483F
:100DF800FFF756FD5AE740F648313948FFF750FDEE
:100E08005DE740F64A313648FFF74AFD6DE740F6A0
:100E18004B313348FFF744FD6DE740F64C3130481D
:100E2800FFF73EFD6BE702F55842D2F8882002F042
:100E38000302032A09D8DFE802F002047806012237
:100E48009CE704229AE7082298E7102296E702F521
:100E5800E632D2F8882002F00C020C2A0ED8DFE81D
:100E680002F0070D0D0D090D0D0D660D0D0D0B0092
:100E7800002283E7042281E708227FE710227DE72A
:100E880002F5E432D2F8882002F03002102A09D0A4
:100E980005D9202A4DD0302A06D108226EE71AB982
:100EA80000226BE7042269E7102267E702F5E232C5
:100EB800D2F8882002F0C002402A09D005D9802A39
:100EC80039D0C02A06D1082258E71AB9002255E7B6
:100ED800042253E7102251E7301A1E010080004017
:100EE800BC290008F369FFCF0038014000440040E6
:100EF80000480040004C004002F5C832D2F8882073
:100F080002F44062B2F5806F0BD007D9B2F5006FDA
:100F180013D0B2F5406F06D108222FE71AB9002284
:100F28002CE704222AE7102228E7022226E70222D9
:100F380024E7022222E7022220E702221EE7082AEB
:100F480000F2A380DFE802F008A110A10DA1A1A181
:100F580005004FF4004008E001F00AF928B9002024
:100F680080E000F05DFFF9E75248626A524B33F8BF
:100F78001220B0FBF2F3656805EB4501994200F2D7
:100F88008680B3EB053F00F284804FF0000892B2F0
:100F980000234146FFF7CEF90F0247EA1067060221
:100FA80068082A46434616EB000847F10009404600
:100FB8004946FFF7BFF9A0F54072404B9A426AD8FC
:100FC8002368D86000204DE0082A66D8DFE802F0E0
:100FD800072705652A6565652D00364803E001F099
:100FE800C7F800285BD0626A334B33F81230B0FB85
:100FF800F3F06268530803EB4003B3FBF2F39BB2D0
:10100800A3F110014FF6EF7291424AD823F00F0274
:10101800C3F3420313432268D360002022E001F0A7
:10102800B9F8DEE700F0FCFEDBE74FF40040DAE752
:10103800204802E001F09CF8B8B3626A1E4B33F80E
:101048001230B0FBF3F0636800EB5300B0FBF3F031
:1010580080B2A0F110024FF6EF739A4227D82368A6
:10106800D86000200123A4F86A30A4F8683000236F
:10107800E3662367BDE8F88301F08CF8DCE700F04D
:10108800CFFED9E74FF40040D7E70120EAE7012077
:10109800E8E70120E6E70120E4E70120E2E7002095
:1010A800E0E70120DEE70120DCE70020DAE70120A5
:1010B800D8E700BF0024F400F4290008FFFC0F0063
:1010C80010B50446836AFF2B00F29D80A36A13F0D3
:1010D800010F0CD0E36A1BB1B3F5003F40F09980D3
:1010E8002268536823F40033E16A0B435360A36A10
:1010F80013F0020F0CD0236B1BB1B3F5803F40F007
:101108008E802268536823F48033216B0B4353602D
:10111800A36A13F0040F0CD0636B1BB1B3F5802FD7
:1011280040F083802268536823F48023616B0B436B
:101138005360A36A13F0080F0BD0A36B13B1B3F578
:10114800004F78D12268536823F40043A16B0B4306
:101158005360A36A13F0100F0BD0E36B13B1B3F510
:10116800805F6ED12268936823F48053E16B0B4350
:101178009360A36A13F0200F0BD0236C13B1B3F55F
:10118800005F64D12268936823F40053216C0B43F9
:101198009360A36A13F0400F24D02368414A934216
:1011A80010D0A2F5744293420CD002F580629342AB
:1011B80008D002F58062934204D040F63D413A4897
:1011C800FFF76EFB636C13B1B3F5801F45D122683E
:1011D800536823F48013616C0B435360636CB3F55D
:1011E800801F40D0A36A13F0800F0BD0E36C13B1BB
:1011F800B3F5002F50D12268536823F40023E16C23
:101208000B43536010BD40F60E412748FFF748FBDB
:101218005CE740F613412448FFF742FB60E740F6DD
:101228001A412148FFF73CFB6BE740F621411E4875
:10123800FFF736FB76E740F628411B48FFF730FBFF
:1012480080E740F62F411848FFF72AFB8AE740F667
:1012580036411548FFF724FB94E740F63E41124813
:10126800FFF71EFBB3E7A36C43B1B3F5001F05D02E
:10127800B3F5800F02D0B3F5C00F07D122685368C9
:1012880023F4C003A16C0B435360ABE740F6434122
:101298000548FFF705FBF1E740F64B410248FFF729
:1012A800FFFAA8E700380140BC2900082DE9F04101
:1012B80004460F4616469846069D2368DB6937EABA
:1012C80003030CBF01230023B3423FD1B5F1FF3F15
:1012D800F3D000F057FAA0EB0800A84222D80DB3CB
:1012E80023681A6812F0040FE7D0DA6912F4006F65
:1012F800E3D04FF400621A622268136823F4D073B3
:1013080013602268936823F0010393602023C4F8D4
:101318008030C4F88430C4F88830002384F87C30E6
:10132800032014E02268136823F4D0731360226842
:10133800936823F0010393602023C4F88030C4F835
:101348008430002384F87C30032000E00020BDE8CE
:10135800F08130B583B004460023C0F8883000F02F
:1013680011FA054623681B6813F0080F0ED123688D
:101378001B6813F0040F17D12023C4F88030C4F879
:101388008430002084F87C0003B030BD6FF07E43C9
:101398000093034600224FF400112046FFF786FF12
:1013A8000028E4D00320EFE76FF07E4300932B463C
:1013B80000224FF480012046FFF778FF0028DBD099
:1013C8000320E1E7002867D010B504468369002BA5
:1013D8003ED00368314A934214D0A2F57442934236
:1013E80010D002F5806293420CD002F580629342DD
:1013F80008D002F55052934204D040F235112848E3
:10140800FFF74EFAD4F88030002B3BD02423C4F8E1
:1014180080302268136823F0010313602046FFF729
:101428001DFC012813D0A36A93BB2268536823F4D8
:10143800904353602268936823F02A0393602268DC
:10144800136843F0010313602046FFF782FF10BDC5
:101458000368124A9342D5D0A2F574429342D1D080
:1014680002F580629342CDD002F580629342C9D0E2
:1014780002F550529342C5D04FF49D710848FFF7CA
:101488000FFABFE784F87C302046FFF733FABDE750
:101498002046FFF715FEC8E70120704700380140D5
:1014A800BC29000810B485B002461A4B93E8030023
:1014B80004AC04E903006C46083393E8030084E8AD
:1014C8000300536EFBB111688B68C3F342638868ED
:1014D80004A901EB507010F8081CC90010F8100C92
:1014E80091FBF0F1A2F86A1004A90B4413F8081C48
:1014F800C90013F8103C91FBF3F3A2F8683005B06B
:101508005DF8044B70470123A2F86A30A2F86830EE
:10151800F5E700BF7429000810B5044603681B4AA4
:10152800934214D0A2F57442934210D002F580621F
:1015380093420CD002F58062934208D002F55052D3
:10154800934204D040F211211148FFF7A9F994F809
:101558007C30012B17D0012384F87C302423C4F875
:10156800803022681368116821F00101116023F0AE
:10157800005300206066226813602023C4F880307E
:1015880084F87C0010BD0220FCE700BF0038014051
:101598000C2A000870B504460D460368284A934291
:1015A80014D0A2F57442934210D002F5806293429F
:1015B8000CD002F58062934208D002F55052934253
:1015C80004D040F23F211F48FFF76AF975B1B5F121
:1015D800005F0BD0B5F1804F08D0B5F1C04F05D0F2
:1015E800B5F1004F02D0B5F1204F21D194F87C30ED
:1015F800012B23D0012384F87C302423C4F88030C5
:1016080023681E681A6822F001021A602368996824
:1016180021F06041294399602046FFF743FF236882
:101628001E602023C4F88030002084F87C0070BD40
:101638004FF410710348FFF733F9D7E70220F6E7B4
:10164800003801400C2A000870B504460D460368AE
:10165800284A934214D0A2F57442934210D002F55E
:10166800806293420CD002F58062934208D002F562
:101678005052934204D04FF41C711F48FFF710F9E1
:1016880075B1B5F1007F0BD0B5F1806F08D0B5F119
:10169800C06F05D0B5F1006F02D0B5F1206F21D130
:1016A80094F87C30012B23D0012384F87C30242348
:1016B800C4F8803023681E681A6822F001021A6094
:1016C8002368996821F06061294399602046FFF7F3
:1016D800E9FE23681E602023C4F88030002084F8C7
:1016E8007C0070BD40F271210348FFF7D9F8D7E7B5
:1016F8000220F6E7003801400C2A0008104B1B684E
:101708000BB90120704710B504464FF47A70B0FB4E
:10171800F3F30C4A1068B0FBF3F001F0CDF868B9A8
:101728000F2C01D901200AE0002221464FF0FF309A
:1017380001F07CF8044B1C60002000E0012010BD83
:1017480000000020080000200400002010B503203D
:1017580001F04EF80020FFF7D1FF10B10124204618
:1017680010BD0446FFF7AAF8F9E70000034A13681A
:10177800034909680B441360704700BFB400002098
:1017880000000020014B1868704700BFB40000201B
:10179800124AD36803F00303D068C0F30310013082
:1017A800032B11D00E4BB3FBF0F30C4AD068C0F3F7
:1017B800062000FB03F0094BDB68C3F341630133E8
:1017C8005B00B0FBF3F07047064BB3FBF0F3D06857
:1017D800C0F3062000FB03F0EDE700BF0010024055
:1017E8000024F40000366E01002800F0098370B56B
:1017F80082B00446036813B113F02F0F38D0236862
:1018080013F0010F4BD063682BB1B3F5803F02D0C2
:10181800B3F5A02F32D1B24A936803F00C03D26813
:1018280002F003020C2B2FD0082B2FD06368B3F5DE
:10183800803F63D0B3F5A02F66D0A94B1A6822F475
:1018480080321A601A6822F480221A606368002BBA
:1018580067D0FFF797FF0546A14B1B6813F4003FBD
:101868001DD1FFF78FFF401B6428F5D90320D0E274
:1018780040F243119B48FFF713F8C0E740F24911C3
:101888009848FFF70DF8C6E7032ACDD1944B1B689B
:1018980013F4003F03D06368002B00F0B382236881
:1018A80013F0020F72D0E36813B1B3F5807F47D10C
:1018B80023697F2B4AD88A4A936803F00C03D268BD
:1018C80002F003020C2B47D0042B47D0E368002B0F
:1018D80000F08680824A136843F480731360FFF730
:1018E80051FF05467E4B1B6813F4806F6FD1FFF7DD
:1018F80049FF401B0228F5D903208AE2784A136879
:1019080043F480331360A1E703F18043A3F53C332C
:101918001A6842F480221A601A6842F480321A6007
:1019280094E7FFF72FFF05466D4B1B6813F4003F44
:10193800B5D0FFF727FF401B6428F5D9032068E2DC
:101948004FF4BF716748FEF7ABFFB1E740F27F1174
:101958006448FEF7A5FFAEE7022AB5D1604B1B68C5
:1019680013F4806F03D0E368002B00F04D825C4ACB
:10197800536823F0FE43216943EA016353605A4BDD
:101988001868FFF7BBFE002840F04082236813F078
:10199800080F56D06369012B36D86369002B39D0FC
:1019A8004F4AD2F8943043F00103C2F89430FFF75D
:1019B800E9FE05464A4BD3F8943013F0020F40D1A4
:1019C800FFF7E0FE401B0228F4D9032021E2444A35
:1019D800536823F0FE43216943EA01635360D5E766
:1019E8003F4A136823F480731360FFF7CBFE054664
:1019F8003B4B1B6813F4806FC8D0FFF7C3FE401B36
:101A08000228F5D9032004E24FF4E3713548FEF7C4
:101A180047FFC2E7324AD2F8943023F00103C2F8F4
:101A28009430FFF7AFFE05462D4BD3F8943013F0F2
:101A3800020F06D0FFF7A6FE401B0228F4D90320A8
:101A4800E7E1236813F0040F00F08F80A368012BEF
:101A580001D9052B3BD1224B9B6D13F0805F3CD104
:101A68001F4B9A6D42F080529A659B6D03F080532C
:101A78000193019B01251D4B1B6813F4807F37D010
:101A8800A368012B48D0052B4ED0154BD3F89020D6
:101A980022F00102C3F89020D3F8902022F004022B
:101AA800C3F89020A368002B4CD0FFF76BFE0646C6
:101AB8000B4BD3F8903013F0020F55D1FFF762FEAD
:101AC800801B41F288339842F2D90320A1E14FF4F8
:101AD800F9710448FEF7E4FEBDE70025CBE700BF37
:101AE80000100240482A000804000020007000404E
:101AF800B54A136843F480731360FFF743FE064644
:101B0800B14B1B6813F4807FBAD1FFF73BFE801BF3
:101B18000228F5D903207CE1AC4AD2F8903043F092
:101B28000103C2F89030BDE7A84BD3F8902042F0EB
:101B38000402C3F89020D3F8902042F00102C3F8C1
:101B48009020AFE7FFF71EFE0646A04BD3F8903073
:101B580013F0020F08D0FFF715FE801B41F28833FF
:101B68009842F2D9032054E1FDB9236813F0200FFD
:101B78003ED0A369012B1ED8A36913B3934AD2F8A8
:101B8800983043F00103C2F89830FFF7FBFD054693
:101B98008E4BD3F8983013F0020F29D1FFF7F2FDDE
:101BA800401B0228F4D9032033E1884A936D23F0BF
:101BB80080539365D9E740F239218548FEF770FED6
:101BC800DAE7824AD2F8983023F00103C2F8983055
:101BD800FFF7D8FD05467D4BD3F8983013F0020F78
:101BE80006D0FFF7CFFD401B0228F4D9032010E1EF
:101BF800E369022B45D8E369002B00F00981734A99
:101C0800926802F00C020C2A00F0B980022B40F016
:101C18009680236A1BB1022B01D0032B37D1636A4C
:101C2800013B0F2B39D8A36A083B772B3BD8E36AD3
:101C3800023B1D2B3DD8236B022B05D0042B03D070
:101C4800062B01D0082B3AD1636B022B05D0042B4D
:101C580003D0062B01D0082B37D15C4A136823F038
:101C680080731360FFF78EFD0546584B1B6813F011
:101C7800007F30D0FFF786FD401B0228F5D90320EE
:101C8800C7E040F262215248FEF70AFEB3E74FF47C
:101C98001B714F48FEF704FEC1E740F26D214C4826
:101CA800FEF7FEFDBFE740F26E214948FEF7F8FD5A
:101CB800BDE740F26F214648FEF7F2FDBBE74FF45F
:101CC8001C714348FEF7ECFDBEE740F27121404825
:101CD800FEF7E6FDC1E73D4AD3683E491940236A4D
:101CE800606A013843EA0013A06A43EA0023206BC4
:101CF8004008013843EA4053606B4008013843EA22
:101D08004063E06A43EAC0630B43D360136843F05F
:101D180080731360D36843F08073D360FFF732FD9C
:101D280004462A4B1B6813F0007F06D1FFF72AFDF3
:101D3800001B0228F5D903206BE0002069E0234B43
:101D48001A6822F080721A60DA6822F00302DA60F8
:101D5800DA6822F0887222F48032DA60FFF712FD26
:101D680004461A4B1B6813F0007F06D0FFF70AFDE4
:101D7800001B0228F5D903204BE0002049E0012B85
:101D880049D0124BDB6803F00301226A914201D06B
:101D980001203EE003F0F002616A0139B2EB011F55
:101DA80001D0012035E003F4FE42A16AB2EB012F15
:101DB80001D001202DE003F07842E16AB2EBC16F57
:101DC8000AD0012025E000BF00700040001002404A
:101DD800482A00080C809F0103F4C001226B5208B6
:101DE800013AB1EB425F01D0012012E003F0C06379
:101DF800626B5208013AB3EB426F0ED0012008E043
:101E080001207047012004E0012002E0012000E0E9
:101E1800002002B070BD0120FBE70020F9E700BFF9
:101E28001E4B9B6803F00C03042B33D01B4B9B68A1
:101E380003F00C03082B2FD0184B9B6803F00C03FE
:101E48000C2B01D000207047144BDA6802F0030213
:101E5800DB68C3F303130133032A11D11048B0FB25
:101E6800F3F30E4AD068C0F3062000FB03F00B4BD7
:101E7800DB68C3F3416301335B00B0FBF3F07047E9
:101E88000848B0FBF3F3054AD068C0F3062000FB0E
:101E980003F0ECE703487047014870470010024020
:101EA80000366E010024F400002800F04881F8B5DF
:101EB80004460D46036813F00F0F02D033F00F03EA
:101EC80004D040F20A31A048FEF7EAFC0F2D12D8E0
:101ED8009E4B1B6803F00F03AB4212D29B4A136858
:101EE80023F00F032B431360136803F00F03AB4277
:101EF80007D00120F0E040F20B319348FEF7D0FC08
:101F0800E6E7236813F0010F6BD06368013B022BEF
:101F180018D86368032B1BD0022B39D08C4B1B6855
:101F280013F4806F00F00D81FFF77AFF894B984218
:101F38003BD9874A936823F0F00343F0800393600A
:101F4800802733E040F222317F48FEF7A9FCE0E722
:101F58007F4B1B6813F0007F01D10120BCE0FFF725
:101F680017FC7C4B98421AD9794B9B6813F0F00FF9
:101F780005D0236813F0020F13D0A3689BB9744AE5
:101F8800936823F0F00343F08003936080270DE00B
:101F98006F4B1B6813F4003FC6D101209CE000275B
:101FA80004E0002702E0002700E00027684A936861
:101FB80023F0030361680B439360FFF7E3FB0646D6
:101FC800634B9B6803F00C036268B3EB820F09D084
:101FD800FFF7D8FB801B41F288339842F0D90320E1
:101FE8007AE00027236813F0020F7CD013F0040F67
:101FF80004D0574A936843F4E0639360236813F06E
:10200800080F06D0524A936823F47C5343F4E063E4
:102018009360A3687BB1802B0DD0902B0BD0A02BA5
:1020280009D0B02B07D0C02B05D0D02B03D0E02B84
:1020380001D0F02B51D1464A936823F0F003A168F0
:102048000B439360414B1B6803F00F03AB4252D81C
:10205800236813F0040F14D0E3685BB1B3F5806F05
:1020680008D0B3F5A06F05D0B3F5C06F02D0B3F5B3
:10207800E06F58D1364A936823F4E063E1680B4374
:102088009360236813F0080F15D023695BB1B3F58B
:10209800806F08D0B3F5A06F05D0B3F5C06F02D03C
:1020A800B3F5E06F45D12A4A936823F46053216958
:1020B80043EAC1039360FFF7B3FE254B9B68C3F364
:1020C8000313254AD35C03F01F03D840234B186041
:1020D800234B1868FFF712FBF8BD40F279311A4814
:1020E800FEF7DEFBA7E7002FACD0194A936823F070
:1020F800F0039360A6E7154A136823F00F032B43F8
:102108001360FFF73FFB0646104B1B6803F00F03F5
:10211800AB429DD0FFF736FB801B41F288339842D3
:10212800F2D90320D8E740F29B310748FEF7B8FB05
:10213800A0E740F2A2310448FEF7B2FBB3E7012062
:1021480070470120C8E700BF482A00080020024065
:102158000010024000B4C404282B00080800002026
:1021680004000020014B1868704700BF08000020D9
:1021780008B5FFF7F7FF054B9B68C3F30223044A32
:10218800D35C03F01F03D84008BD00BF0010024015
:10219800382B000808B5FFF7E5FF054B9B68C3F32C
:1021A800C223044AD35C03F01F03D84008BD00BF14
:1021B80000100240382B0008F0B583B004460268CE
:1021C800434B1340002B33D0236813F4002F00F047
:1021D8008780236C43B1B3F5807F05D0B3F5007FCA
:1021E80002D0B3F5407F28D13A4B9B6D13F0805F46
:1021F80028D1384B9A6D42F080529A659B6D03F056
:1022080080530193019B0126334A136843F480737A
:102218001360FFF7B7FA05462F4B1B6813F4807F4E
:1022280012D1FFF7AFFA401B0228F5D903250CE0BD
:1022380085212A48FEF734FBC6E78D212748FEF79B
:102248002FFBD1E70026DFE7002545BB214BD3F85C
:10225800903013F4407315D0226C9A4212D01D4A64
:10226800D2F8903023F44073D2F8901041F48031C2
:10227800C2F89010D2F8901021F48031C2F8901072
:10228800C2F8903013F0010F10D145B9114AD2F8B5
:10229800903023F44073216C0B43C2F8903006B39E
:1022A8000C4A936D23F0805393651AE0FFF76AFA9E
:1022B8000746084BD3F8903013F0020FE5D1FFF72B
:1022C80061FAC01B41F288339842F2D90325DCE752
:1022D800EFFF08000010024000700040802A00084C
:1022E8000025236813F0010F10D06368012B04D96F
:1022F800032B02D0022B40F06281B34AD2F8883017
:1023080023F0030361680B43C2F88830236813F095
:10231800020F11D0A36833B1042B04D00C2B02D0C8
:10232800082B40F05581A84AD2F8883023F00C03D6
:10233800A1680B43C2F88830236813F0040F11D04A
:10234800E36833B1102B04D0302B02D0202B40F09F
:1023580044819D4AD2F8883023F03003E1680B436A
:10236800C2F88830236813F0080F11D0236933B1FD
:10237800402B04D0C02B02D0802B40F03381924AEE
:10238800D2F8883023F0C00321690B43C2F88830A3
:10239800236813F0200F14D063694BB1B3F5806F35
:1023A80006D0B3F5406F03D0B3F5006F40F020813D
:1023B800854AD2F8883023F4406361690B43C2F838
:1023C8008830236813F0400F11D0A36933B1B3F5F7
:1023D800805F03D0B3F5005F40F010817A4AD2F8ED
:1023E800883023F44053A1690B43C2F8883023682E
:1023F80013F0800F11D0E36933B1B3F5804F03D0E8
:10240800B3F5004F40F000816F4AD2F8883023F4CA
:102418004043E1690B43C2F88830236813F4807F96
:1024280011D0236A33B1B3F5803F03D0B3F5003F31
:1024380040F0F080644AD2F8883023F44033216AAF
:102448000B43C2F88830236813F4007F14D0636A02
:102458004BB1B3F5802F06D0B3F5002F03D0B3F5F9
:10246800402F40F0DD80584AD2F8883023F44023CA
:10247800616A0B43C2F88830236813F4806F19D05F
:10248800A36A4BB1B3F5801F06D0B3F5001F03D084
:10249800B3F5401F40F0CA804B4AD2F8883023F485
:1024A8004013A16A0B43C2F88830A36AB3F5801FB2
:1024B80000F0C280236813F4006F19D0E36A4BB1AF
:1024C800B3F5800F06D0B3F5000F03D0B3F5400F76
:1024D80040F0B7803C4AD2F8883023F44003E16AE0
:1024E8000B43C2F88830E36AB3F5800F00F0AF8081
:1024F800236813F4805F16D0236B33B1B3F1807F68
:1025080003D0B3F1007F40F0A7802F4AD2F888307B
:1025180023F04073216B0B43C2F88830236BB3F16F
:10252800807F00F09F80236813F4005F13D0636BF3
:102538001BB1B3F1006F40F09A80234AD2F888307B
:1025480023F04063616B0B43C2F88830636BB3F1CF
:10255800006F00F09280236813F4804F13D0A36BB0
:102568001BB1B3F1006F40F08D80174AD2F8883064
:1025780023F04063A16B0B43C2F88830A36BB3F11F
:10258800006F00F08580236813F4004F14D0E36BCC
:102598002BB1B3F1805F02D0B3F1005F7DD10A4A5D
:1025A800D2F8883023F04053E16B0B43C2F88830EF
:1025B800E36BB3F1805F76D0284603B0F0BDE2212B
:1025C8000248FEF76DF998E600100240802A0008DC
:1025D800EC213748FEF764F9A5E6F6213448FEF702
:1025E8005FF9B6E640F201113148FEF759F9C6E63F
:1025F8004FF48D712E48FEF753F9D9E64FF49271D6
:102608002B48FEF74DF9E9E64FF497712848FEF795
:1026180047F9F9E64FF49C712548FEF741F909E7B7
:102628004FF4A8712248FEF73BF91CE74FF4AD714F
:102638001F48FEF735F92FE7D36843F48013D360BA
:1026480038E74FF4B5711A48FEF72AF942E7D3681C
:1026580043F48013D3604BE740F27B111448FEF734
:102668001FF952E7D36843F48013D3605BE740F265
:102678008D110F48FEF714F95FE7D36843F4801310
:10268800D36068E74FF4CE710948FEF709F96CE7A3
:10269800D36843F48013D36075E74FF4D5710448C9
:1026A800FEF7FEF87BE7D36843F48033D36083E713
:1026B800802A000810B5044628B1B0F5007F02D082
:1026C800B0F5806F11D1002C3DD1414B1B6803F44C
:1026D800C063B3F5806F0DD03D4AD2F8803023F443
:1026E8008073C2F88030002038E09E213948FEF718
:1026F800D7F8E8E7364AD2F8803023F48073C2F876
:102708008030136823F4C06343F400731360324BC2
:102718001A68322303FB02F3304AA2FB03239B0C03
:10272800013300E0013B2A4A526912F4806F01D05C
:10273800002BF7D1264B5B6913F4806F01D1002081
:102748000CE003200AE0B4F5007F08D0204A1368A3
:1027580023F4C06343F480631360002010BD1C4B56
:102768001B6803F4C063B3F5806F08D0184AD2F829
:10277800803043F48073C2F880300020EEE7144ABA
:10278800D2F8803043F48073C2F88030136823F4A1
:10279800C06343F4007313600F4B1A68322303FBC2
:1027A80002F30E4AA2FB03239B0C013300E0013B1A
:1027B800074A526912F4806F01D0002BF7D1044BFD
:1027C8005B6913F4806F01D10020C7E70320C5E7D8
:1027D80000700040B82A00080800002083DE1B4370
:1027E800024A936843F48043936070470070004046
:1027F80010B50446C31E042B0FD80A4AD36823F425
:10280800E0631B041B0C240204F4E064234343F03C
:10281800BF6343F40033D36010BDA7210248FEF71D
:102828003FF8EAE700ED00E0F02A000870B5054639
:102838000C4616460F2A25D80F2C28D81B4BDB68C8
:10284800C3F30223C3F10702042A28BF0422191D77
:10285800062921D9033B4FF0FF3101FA02F224EA9D
:1028680002049C4001FA03F326EA03063443002DD0
:1028780014DB2401E4B205F1604505F5614585F8EE
:10288800004370BDBF210A48FEF70AF8D4E7C0210B
:102898000748FEF705F8D1E70023DCE705F00F0548
:1028A8002401E4B2034B5C55EBE700BF00ED00E008
:1028B800F02A000814ED00E00138B0F1807F0AD258
:1028C800064B5860064AF02182F8231000209860D1
:1028D80007221A6070470120704700BF10E000E02F
:1028E80000ED00E0054BD3F8882042F47002C3F8ED
:1028F80088204FF000629A60704700BF00ED00E04A
:102908000D4885460D480E490E4A002302E0D4586A
:10291800C4500433C4188C42F9D30B4A0B4C00231F
:1029280001E013600432A242FBD3FFF7DBFFFDF79F
:1029380093FCFDF777FFFEE70080002000000020F1
:102948000C000020502B00080C000020B8000020CC
:10295800FEE70000F8B500BFF8BC08BC9E4670470B
:0C296800F8B500BFF8BC08BC9E467047E4
:102974000101010307010000080402040801010128
:10298400447269766572732F53544D3332473478E9
:10299400785F48414C5F4472697665722F53726365
:1029A4002F73746D3332673478785F68616C5F6756
:1029B40070696F2E63000000447269766572732F2C
:1029C40053544D3332473478785F48414C5F4472F6
:1029D400697665722F5372632F73746D3332673463
:1029E40078785F68616C5F756172742E63000000B3
:1029F400010002000400060008000A000C00100098
:102A04002000400080000001447269766572732FD3
:102A140053544D3332473478785F48414C5F4472A5
:102A2400697665722F5372632F73746D3332673412
:102A340078785F68616C5F756172745F65782E6326
:102A440000000000447269766572732F53544D334D
:102A540032473478785F48414C5F447269766572D6
:102A64002F5372632F73746D3332673478785F68D1
:102A7400616C5F7263632E630000000044726976C8
:102A84006572732F53544D3332473478785F48411D
:102A94004C5F4472697665722F5372632F73746D41
:102AA4003332673478785F68616C5F7263635F6543
:102AB400782E6300447269766572732F53544D33D4
:102AC40032473478785F48414C5F44726976657266
:102AD4002F5372632F73746D3332673478785F6861
:102AE400616C5F7077725F65782E630044726976FB
:102AF4006572732F53544D3332473478785F4841AD
:102B04004C5F4472697665722F5372632F73746DD0
:102B14003332673478785F68616C5F636F727465B1
:102B2400782E63000000000000000000010203048E
:0C2B34000607080900000000010203046D
:082B40002CD8FF7F010000000A
:042B4800410200083E
:042B4C001902000862
:0C2B500001000000100000000024F40050
:0400000508002909BD
:00000001FF
