:020000040800F2
:1000000000000220E9390008B5170008B7170008FA
:10001000B9170008BB170008BD1700080000000052
:10002000000000000000000000000000BF170008F2
:10003000C117000800000000C3170008C51700081A
:10004000393A0008393A0008393A0008393A0008C4
:10005000393A0008393A0008393A0008393A0008B4
:10006000393A0008393A0008393A0008393A0008A4
:10007000393A0008393A0008393A0008393A000894
:10008000393A0008393A0008393A0008393A000884
:10009000393A0008393A0008393A0008393A000874
:1000A000393A0008393A0008393A0008393A000864
:1000B000393A0008393A0008393A0008393A000854
:1000C000393A0008393A0008393A0008393A000844
:1000D000393A0008393A0008393A0008393A000834
:1000E000CD170008393A0008393A0008393A0008B3
:1000F000393A0008393A0008393A0008393A000814
:10010000393A0008393A0008393A0008393A000803
:10011000393A0008393A0008393A0008393A0008F3
:10012000393A0008393A0008393A0008393A0008E3
:10013000393A0008393A0008393A0008393A0008D3
:10014000393A0008393A0008393A0008393A0008C3
:10015000393A0008393A0008393A0008393A0008B3
:10016000393A0008393A0008393A0008393A0008A3
:10017000393A0008393A0008393A0008393A000893
:10018000393A0008393A0008393A0008393A000883
:10019000393A000800000000393A0008393A0008EE
:1001A000393A0008393A0008393A0008393A000863
:1001B000393A0008393A0008393A0008393A000853
:1001C000393A0008393A0008393A0008393A000843
:0801D000393A0008393A000831
:1001D80010B5054C237833B9044B13B10448AFF379
:1001E80000800123237010BD3C04002000000000A3
:1001F800D03C000808B5034B1BB103490348AFF3D3
:10020800008008BD0000000040040020D03C000829
:1002180053B94AB9002908BF00281CBF4FF0FF3165
:100228004FF0FF3001F0C0B8ADF1080C6DE904CE15
:1002380000F006F8DDF804E0DDE9022304B07047B9
:100248002DE9F047089D04468C46002B40F083803A
:100258008A42174647D9B2FA82F242B1C2F1200067
:1002680024FA00F09140974040EA010C94404FEA8C
:100278001748230CBCFBF8F61FFA87FE08FB16C1CB
:1002880043EA014306FB0EF1994209D9FB1806F12E
:10029800FF3080F01981994240F21681023E3B44BA
:1002A8005B1AA4B2B3FBF8F008FB103344EA03442A
:1002B80000FB0EFEA64509D93C1900F1FF3380F07A
:1002C8000581A64540F2028102383C4440EA0640D6
:1002D800A4EB0E0400261DB1D4400023C5E9004359
:1002E8003146BDE8F08702B9FFDEB2FA82F2002A91
:1002F80050D1CB1B4FEA174E1FFA87F80126B3FBE4
:10030800FEFC210C0EFB1C3341EA034108FB0CF3F5
:100318008B4207D979180CF1FF3002D28B4200F2D8
:10032800E9808446C91AA3B2B1FBFEF00EFB101196
:1003380043EA014408FB00F8A04507D93C1900F13D
:10034800FF3302D2A04500F2D9801846A4EB080476
:1003580040EA0C40BFE78B4209D9002D00F0B1807C
:100368000026C5E9000130463146BDE8F087B3FAFA
:1003780083F6002E4AD18B4202D3824200F2B88023
:10038800841A61EB030101208C46002DA8D0C5E931
:10039800004CA5E7C2F1200320FA03F6974001FAC2
:1003A80002F04FEA174ED9403043030CB1FBFEF67A
:1003B8001FFA87F80EFB161143EA014306FB08F102
:1003C800994204FA02F409D9FB1806F1FF3C80F0BF
:1003D8008D80994240F28A80023E3B445B1A81B28A
:1003E800B3FBFEF00EFB103341EA034100FB08F3B8
:1003F8008B4207D9791800F1FF3C73D28B4271D92F
:1004080002383944CB1A40EA064678E7C6F1200C90
:1004180003FA06F422FA0CF31C4320FA0CF701FA4B
:1004280006F34FEA144E21FA0CF11F433B0CB1FBC3
:10043800FEF91FFA84F80EFB191143EA014109FB82
:1004480008FA8A4502FA06F200FA06F308D9611892
:1004580009F1FF3048D28A4546D9A9F10209214459
:10046800A1EB0A01BFB2B1FBFEF00EFB101147EA87
:10047800014700FB08F8B84507D9E71900F1FF3133
:100488002ED2B8452CD90238274440EA0940A7EBB8
:100498000807A0FB02894F45C64649461AD317D01C
:1004A8005DB1B3EB0E0267EB010707FA0CFCF240F3
:1004B8004CEA0202F740C5E9002700263146BDE8AC
:1004C800F0872E4628460BE70646E9E61846FDE67D
:1004D8004345E5D2B8EB020E69EB04010138DFE7CA
:1004E8000846D2E760468DE78146B9E7664675E774
:1004F80030464AE7ACF1020C394413E702383C4471
:1005080024E700BF03685A004CBF43F0004323F0C0
:1005180000431844704700BF2DE9F84329B34F1E24
:10052800044615463E464FF0000808EB060101EB6D
:10053800D171491004EBC1094846FFF7E3FF0346B0
:10054800C80008308F42204409D0AB4209D8FFF7D1
:10055800D9FF0138A8420AD201F10108E5E7AB4208
:1005680005D9884501D04E1EDFE74FF000094846FF
:10057800BDE8F883012807D0022807D0044B0028DB
:100588000CBF184600207047024870470248704761
:10059800410C0008450C0008490C000830B5234BF5
:1005A80083B004468D1E3BB301A92846AFF30080F3
:1005B800E8B101992A46FFF7AFFF0146B8B1FFF746
:1005C800A1FF4B68A064012B2BD0002B01F1040084
:1005D80023DBFFF797FF0023C4E913030368002B0D
:1005E80010DBFFF78FFF2061002003B030BD002330
:1005F8000920236103B030BD0D490E48091AC910FE
:100608000191D7E7C3F30360FFF7B4FF0028206127
:1006180014BF0020092003B030BD0123C4E913032F
:10062800DCE7002323610520DFE700BF00000000AE
:10063800A83F0008E03E00080368DA0710B5044642
:1006480006D49B0700F1480009D500F04BFC23684D
:10065800590709D51A070ED5DB0613D510BD00F0CA
:1006680039FC23685907F5D404F1D00000F042FCA6
:1006780023681A07F0D404F5A87000F043FC236837
:10068800DB06EBD404F5E870BDE8104000F07EBC52
:100698000346006800B11844704700BF092070473E
:1006A800704700BF70B504460E46316C2046FFF710
:1006B80075FF054688B9336C636132462369214664
:1006C800012098470828F0D0072806D12846316C21
:1006D800FFF7E6FF301D00F0F1FB03F091FA00BFD1
:1006E8002DE9F0470D1D064614460FCDADF5727D78
:1006F8000DF10C0CACE80F000FCDACE80F000FCDDE
:10070800ACE80F0095E80F0002ADF768D6F818803E
:100718008CE80F0000232B6021E02B6C73614FF4F1
:10072800F07229467AA800F041FE33697AAA314668
:1007380050469847889BCDE9005821466B6481460E
:10074800334632460120B8470446E8B94FF4F07200
:100758007AA9284600F02AFEB9F1080F1BD1296CA6
:100768003046FFF71BFF09345FFA84FA81460028F8
:10077800D3D0AB6B4AF01001CDE9005832466B6418
:1007880001203346B84708B14FF0090948460DF52E
:10079800727DBDE8F087B9F1070FF5D12046296CC5
:1007A800FFF77EFF03A800F089FB00BF406C70478D
:1007B800F0B5CB6B0B640E1D0F4605460FCEF9B096
:1007C80001AC0FC40FCE0FC40FCE0FC496E80F00B4
:1007D8004FF0FF3684E80F00009606E02B696A4662
:1007E800294698470828044608D110992846FFF753
:1007F800D5FE0028F2D0092079B0F0BD6846FFF791
:100808001BFF062CF7D139462846FFF74BFF00BFE0
:1008180030B4DD6BC160826119461D64002230BCB2
:100828005EE700BF70B5C66843690B64AEB903697B
:100838000A4604460D46014602209847072805D077
:1008480008280FD129462046FFF72CFF3046296C8F
:10085800FFF726FF281D00F031FB0122FFF740FFBC
:1008680003F0CEF903F0CCF9C2681AB1CA6B0A6476
:10087800002235E79CE700BF704700BF8368014648
:100888000BB1012018477047012912D009D873B954
:100898000F2A0CD800EB820218465368009A13609E
:1008A80070470339012994BF0120022070470220B4
:1008B80070470846704700BF10B584B0002303ACEA
:1008C8000A4600941946FFF7DFFF039804B010BDED
:1008D800012912D009D873B90F2A0CD800EB82006D
:1008E800009A12684260184670470339012994BF7C
:1008F800012002207047022070470846704700BF59
:1009080010B584B0002303AC039200940A4619463C
:10091800FFF7DEFF04B010BDF0B5D36B1364151DEF
:100928008C4606460FCDADF50F7D17AC0FC40FCD25
:100938000FC40FCD0FC495E80F004FF0FF3784E8C0
:100948000F006546169710E0FFF7DAFF294616A84C
:10095800B047034616AA6946082083B9049B9847FE
:10096800052804460CD0092809D026996846FFF7BF
:1009780015FE03466A460C2116A8002BE4D009246C
:1009880016A8FFF759FE20460DF50F7DF0BD00BFF4
:100998002DE9F04FCC6C89B00D4654F8041B069431
:1009A800174600F003081E46002B79D00B0CDAB26C
:1009B80009048DF81D30022304EB820405918DF89B
:1009C8001C302B6DB8F1020F08BFAC6B13F001039C
:1009D8000CD0384605A900F073FB18B9082009B0F7
:1009E800BDE8F08F092009B0BDE8F08FD4F800A069
:1009F800BAF1000FEDD0019300F008030293022E24
:100A08004AD0B4F800A0B4F802900434AA6C29F0D3
:100A1800010B0F2138469344FFF74EFF834539D821
:100A28002AF001025A44824294BF002001204FEA72
:100A3800490303F002030AF0010A43EA0A03012BFF
:100A480049D0022B32D0002BCCD1B8F1000F02D004
:100A5800002840F0CD800434D4F800A0BAF1000F8B
:100A6800CDD105A9384600F02BFB0028BAD1019B4F
:100A7800002BB3D00F213846FFF71EFF0E21024688
:100A88003846FFF73DFF38466A4A0F21FFF738FF1F
:100A98000720A8E70020CAE7D4F804900834B5E78F
:100AA800090203230591ADF81C308AE7236823F077
:100AB800004BB8F1000F45D128B1029A002A5CD04A
:100AC800BBF1000F74D0002B00DA04340BF1010BDA
:100AD80004EB8B04C0E7B8F1000F19D1B0B1D4E929
:100AE8000023991C4FEAD2723FF47CAF05F15801FC
:100AF8000133049100F09080201DFFF7C9FD04AB7D
:100B080001462846AFF3008000285BD10834A3E7EC
:100B18000D213846D5F82090FFF7CEFE8145F5D156
:100B2800AB6A9C42F2D12046FFF7ECFC0F2102464B
:100B38003846FFF7E5FE38462A460021FFF7E0FE73
:100B4800072050E70D213846D5F82090FFF7B4FE6E
:100B5800814501D02368B6E7AB6A9C42FAD10422EA
:100B68000021C5E90B12A318C5F828B06B632368E8
:100B78008B4259DB01230193A8E705F15803CDF80F
:100B88000C8004F1040AB04691461E460DE0049616
:100B9800FFF77EFD04AB014600222846AFF3008034
:100BA80009F101090AF1040AE8B9D9455046EED11C
:100BB80038460D21FFF780FE049B2862C5E90934F9
:100BC800062010E781460D213846FFF775FEB9F17A
:100BD800020F286225D12B46049A43F82C2F6B620A
:100BE800AC620620FFE646462368DDF80C806AE71B
:100BF8002046FFF787FC04340246AC6328461446B7
:100C0800AFF3008000283FF4EDAE384622460F21AE
:100C1800FFF776FE0720E6E638460D21FFF74CFE83
:100C28002862049B6B62DBE70BF1010004EB800098
:100C38007AE700BF000000000023A9E60123A7E629
:100C48000223A5E62DE9F0430646C3B015461C4627
:100C5800042900F2B980DFE801F09A53B7290300AC
:100C6800002C40F0B180102A00F2AE800368D8064C
:100C780000F1F38020AF384600F092F9B06B002302
:100C8800012404FA03F22A42014604D051F8042B45
:100C980047F8232008460133042BF2D1B0633846C5
:100CA80000F074F9002043B0BDE8F083032C40F055
:100CB8008B8094B204EB1243102B4FEA124500F2DA
:100CC800838003681F0700F1D08020AF384600F00A
:100CD8003BF907EBC501B56B54B10B46E81A01EBBC
:100CE800C401E4001A5843F8042B8B42FAD1254476
:100CF8003846B56300F006F9002043B0BDE8F0833C
:100D0800012C4FEA124895B25AD0052C5CD108EB59
:100D18000509B9F1200F57D8B8F10F0F77D9A946AF
:100D2800002D40F08880B36B6DB320AF4FF0000901
:100D380007EBC807043F03EBC50553F8041B47F846
:100D4800041FAB42F9D1B9F1000F0FD06F464146ED
:100D5800102938BF102107EBC101843903EBC905FD
:100D680053F8040B41F8040FAB42F9D1012C00F001
:100D78008480B8F10F0FB56345D9B9F1000F02D0DF
:100D8800684600F0B7F8002043B0BDE8F083DCB94E
:100D9800876B2346012094B206F1040C00FA03F293
:100DA8002242394604D051F8042B4CF823200F4630
:100DB8000133102BF2D115F40050E4D1B76304E0ED
:100DC80008EB0503102B03D9022043B0BDE8F083DC
:100DD800B8F10F0FF8D83368DA0706D5304623F094
:100DE800030340F8483B00F079F820AF384600F09C
:100DF80075F8B36B002D99D11D460435B563384697
:100E080000F068F8BFE720A800F06CF8B5E7B9F182
:100E1800100F40D9A9F110093368D90708D523F074
:100E28000103304643F0020340F8483B00F05EF807
:100E3800B9F1000F32D033685A0720D4B8F10F0F38
:100E480025D96F463846C8F1100500F057F8002D2F
:100E5800B36B7FF77CAF20AF6AE723F010033360F2
:100E680006F5E87000F09CF804E723F00803036037
:100E780000F5A87000F068F827E720AFBDE7304616
:100E880023F0040340F8D03B00F038F8D6E720A858
:100E980000F02CF8D5E74FF00009BDE7B8F10F0FC7
:100EA8003FF641AF20AF384600F020F8B36B002D75
:100EB8007FF43CAF384600F015F864E700F13401E0
:100EC80091E838009C46A6464CF8045D90E8FF0F70
:100ED800E54600BD90EC210B704700BF80EC210B6C
:100EE800704700BF90EC200B704700BF80EC200BD0
:100EF800704700BFD0EC200B704700BFC0EC200B40
:100F0800704700BFF0EC0201F0EC0211F0EC022196
:100F1800F0EC0231F0EC0241F0EC0251F0EC02612D
:100F2800F0EC0271F0EC0281F0EC0291F0EC02A11D
:100F3800F0EC02B1F0EC02C1F0EC02D1F0EC02E10D
:100F4800F0EC02F1704700BFE0EC0201E0EC0211A6
:100F5800E0EC0221E0EC0231E0EC0241E0EC02516D
:100F6800E0EC0261E0EC0271E0EC0281E0EC02915D
:100F7800E0EC02A1E0EC02B1E0EC02C1E0EC02D14D
:100F8800E0EC02E1E0EC02F1704700BFB0FC018147
:100F9800B0FC0191B0FC01A1B0FC01B1704700BFE9
:100FA800A0FC0181A0FC0191A0FC01A1A0FC01B161
:100FB800704700BFEC4600B52DE900502DE9FF1F32
:100FC8004FF000032DE90C0001A9FFF7F1FBDDF854
:100FD80040E012B0704700BFEC4600B52DE9005064
:100FE8002DE9FF1F4FF000032DE90C0001A9FFF7C1
:100FF80019FCDDF840E012B0704700BFEC4600B5C0
:101008002DE900502DE9FF1F4FF000032DE90C00DA
:1010180001A9FFF729FCDDF840E012B0704700BFD6
:10102800EC4600B52DE900502DE9FF1F4FF00003F5
:101038002DE90C0001ABFFF7EBFBDDF840E012B047
:10104800704700BFEC4600B52DE900502DE9FF1FA1
:101058004FF000032DE90C0001AAFFF75DFCDDF855
:1010680040E012B0704700BF027A7AB9437AA3B160
:101078004268013B10B4437213680321141D0172C6
:101088001A024460026010BC180E70470368013AE7
:1010980002721A020260180E7047B020704700BF33
:1010A80000B585B003AA0023009219460C22FFF769
:1010B800EBFB039805B05DF804FB00BFF0E700BF49
:1010C8002DE9F043054685B00E464FF0000830463E
:1010D800FFF7CAFFB028044600F0B280070620D503
:1010E80000F0F003802B4DD0902B36D0A02B60D091
:1010F800B02B74D0C02B00F08B8000F0F803D02BFD
:101108000BD100F00702013242F40022052301212D
:101118002846FFF797FD0028D9D0092005B0BDE87B
:10112800F0830DF10C09002319468700CDF80090D3
:101138000D222846FFF7A8FBFFB2039BCDF80090CD
:10114800043760064CBFDF1BFF18002319460D2229
:1011580028460397FFF7BCFBB9E700F00D030D2BFA
:10116800DBD003AF002300F00F0219460097284692
:10117800FFF78AFB0023009719460D222846FFF740
:10118800A7FBA4E73046FFF76FFF24022043B0F522
:10119800004FC2D004010023A2B219462846FFF727
:1011A80051FD0028B9D114F4004F18BF4FF00108C1
:1011B8008DE7C24302F007034FF47F621A4101072B
:1011C80002F47F624FF0000348BF42F480421946A0
:1011D8002846FFF737FD00283FF479AF9DE7B1288F
:1011E80033D0B22800F08B80B32839D000F0FC034C
:1011F800B42B92D000F007020132012342F40022FE
:1012080019462846FFF71EFD00283FF460AF84E723
:10121800C62842D0C7284CD000F0F803C02B5BD0BA
:10122800C82860D0C9287FF478AF3046FFF71CFF84
:10123800020300F00F0002F470220130024365E758
:10124800B8F1000F18D0002068E73046FFF70CFF10
:10125800024600283FF461AF10F0F003D0D05CE7FD
:101268003046FFF701FF010300F00F0001F4702181
:10127800421C01230A43C3E703AC43460E224146FE
:1012880000942846FFF700FB0094284643460F22A7
:101298004146FFF71DFB404640E73046FFF7E4FEB6
:1012A800010300F00F0001F47021421C03230A43DC
:1012B800A6E73046FFF7D8FE024600283FF42DAFD8
:1012C80010F0F0037FF429AF04212846FFF7BAFC99
:1012D80000283FF4FCAE20E700F00F0201320323A0
:1012E80042F420228CE73046FFF7BEFE00F0F00201
:1012F80000F00F031032013343EA023206E70023FD
:101308000DF10C090D221946CDF800902846FFF77B
:10131800BBFA3046FFF7A8FE02064FF002070CD5CD
:10132800039B00F07F00B840034430460393FFF767
:101338009BFE030607F10707F2D4039BCDF8009044
:1013480000F07F0403F50172BC40002314441946E1
:101358000D2228460394FFF7BBFAB8E610B5C26C15
:1013680084B0536803248DF80C401B0202F1080472
:101378000846D279019301A902948DF80D20FFF750
:101388009FFE04B010BD00BF08B5FFF797FE806C44
:1013980008BD00BF08B5FFF791FEC06CC3790233E2
:1013A80000EB830008BD00BF704700BF844641EAD8
:1013B800000313F003036DD1403A41D351F8043BC5
:1013C80040F8043B51F8043B40F8043B51F8043B17
:1013D80040F8043B51F8043B40F8043B51F8043B07
:1013E80040F8043B51F8043B40F8043B51F8043BF7
:1013F80040F8043B51F8043B40F8043B51F8043BE7
:1014080040F8043B51F8043B40F8043B51F8043BD6
:1014180040F8043B51F8043B40F8043B51F8043BC6
:1014280040F8043B51F8043B40F8043B51F8043BB6
:1014380040F8043B51F8043B40F8043B403ABDD225
:10144800303211D351F8043B40F8043B51F8043BC7
:1014580040F8043B51F8043B40F8043B51F8043B86
:1014680040F8043B103AEDD20C3205D351F8043B56
:1014780040F8043B043AF9D2043208D0D2071CBF22
:1014880011F8013B00F8013B01D30B88038060464B
:10149800704700BF082A13D38B078DD010F00303C1
:1014A8008AD0C3F10403D21ADB071CBF11F8013B31
:1014B80000F8013B80D331F8023B20F8023B7BE780
:1014C800043AD9D3013A11F8013B00F8013BF9D2AB
:1014D8000B7803704B7843708B7883706046704745
:1014E80030B5A9B0382200211AA802F0C7FA0024A2
:1014F8001594169417941894199454222146684602
:1015080002F0BCFA204602F015F902231A934FF4B0
:1015180080721D9240221E922193229304252395C6
:10152800552224922593269327931AA801F018F997
:101538000F23159303231693179418941994294687
:1015480015A801F06FFC202300930694684601F06B
:10155800EFFD29B030BD08B501F0A0F8FFF7C0FFD6
:1015680000F01EF800F0BCF813E0012220214FF033
:10157800904000F0B1FA4FF4967001F0B1F80022F3
:1015880020214FF0904000F0A7FA4FF4967001F038
:10159800A7F802F00DFA0028FBD0E6E7704770477D
:1015A80070B58CB000240794089409940A940B949D
:1015B800454BDA6C42F00402DA64DA6C02F0040299
:1015C8000192019ADA6C42F02002DA64DA6C02F0D5
:1015D80020020292029ADA6C42F04002DA64DA6C73
:1015E80002F040020392039ADA6C42F00102DA64D4
:1015F800DA6C02F001020492049ADA6C42F00202F8
:10160800DA64DA6C02F002020592059ADA6C42F0AA
:101618000802DA64DB6C03F008030693069B224693
:1016280020214FF0904000F057FA4FF400530793F1
:10163800264B08930994264E07A9304600F0E4F893
:101648004FF48063079303250895099407A9214857
:1016580000F0DAF841F6FF7307930895099407A993
:10166800304600F0D1F849F6D373079308950994EA
:1016780007A94FF0904000F0C7F8202307930123F3
:10168800089309940A9407A94FF0904000F0BCF819
:101698004FF6F77307930895099407A90E4800F0C9
:1016A800B3F8042307930895099407A90B4800F099
:1016B800ABF822462146282002F0F8F8282002F04C
:1016C8003BF90CB070BD00BF0010024000001110C3
:1016D800000800480018004800040048000C0048B2
:1016E80008B51648164B03604FF4E13343600023F6
:1016F8008360C36003610C22426183610362836279
:1017080000F0F4FD70B900210C4800F0E3FE60B968
:1017180000210A4800F03CFF50B9084800F098FE44
:1017280048B908BDFFF73AFFEDE7FFF737FFEFE7E6
:10173800FFF734FFF1E7FFF731FFF2E75804002025
:101748000080004000B589B00023039304930593FB
:10175800069307930268144B9A4202D009B05DF8C9
:1017680004FB03F5C833DA6D42F00102DA65DA6D7D
:1017780002F001020192019ADA6C42F00102DA6485
:10178800DB6C03F001030293029B0C2303930222F8
:10179800049200220592069207930DEB03014FF085
:1017A800904000F031F8D9E7008000407047FEE72C
:1017B800FEE7FEE7FEE770477047704708B500F0A0
:1017C8007DFF08BD08B54FF4005000F0A1F908BD31
:1017D80000B583B00B4B1A6E42F001021A661A6EFE
:1017E80002F001020092009A9A6D42F080529A65C6
:1017F8009B6D03F080530193019B02F031F803B015
:101808005DF804FB001002402DE9F04383B0064662
:101818000C46B0F1904F1AD0A94B984217D003F557
:101828008063984213D003F5806398420FD003F584
:10183800806398420BD003F58063984207D003F584
:101848008063984203D0B1219E48FFF7A8FE236821
:101858009AB212B11B0C1B041BB1B2219948FFF7B5
:101868009EFE6368012B1ED9112B1CD0022B1AD0A7
:10187800122B18D0944A934215D002F58012934245
:1018880011D002F5801293420DD0A2F5F8129342BE
:1018980009D002F58012934205D002F580129342D6
:1018A80001D0032B04D1A368022B06D800254AE0F7
:1018B800B3218448FFF773FEF5E7B4218148FFF7A9
:1018C8006EFEF3E7C4217F48FFF769FE52E0DD2191
:1018D8007C48FFF764FE97E0052300E000238B4077
:1018E80003430232794941F82230794B1A68FB43A5
:1018F80022EA0701606810F4803F01D047EA02013C
:10190800734A1160526803EA0201606810F4003FEC
:1019180001D047EA02016E4A5160926803EA020167
:10192800606810F4801F01D047EA0201684A91609C
:10193800D2681340616811F4001F01D047EA02031E
:10194800634AD3600135276837FA05F300F0B4809D
:101958004FF0010808FA05F818EA0707F2D063689B
:101968005A1E012A03D9112B01D0122B16D1E36874
:10197800032BA7D8B268690003238B4022EA03022D
:10198800E3688B401343B360736823EA080863680D
:10199800C3F30013AB4043EA08037360F2684FEAED
:1019A8004508032303FA08F36FEA030922EA03024E
:1019B800A36803FA08F31343F3606368022B01D0AA
:1019C800122B31D1B6F1904F1AD03D4B9E4217D011
:1019D80003F580639E4213D003F580639E420FD0C7
:1019E80003F580639E420BD003F580639E4207D0C7
:1019F80003F580639E4203D0DC213248FFF7CFFD18
:101A080023690F2B3FF663AFEA08083256F8220025
:101A180005F0070399000F238B4020EA0300236990
:101A28008B40034346F82230336809EA03096368A8
:101A380003F0030303FA08F343EA09033360636816
:101A480013F0805F3FF47EAF224B1A6E42F0010222
:101A58001A661B6E03F001030193019BAA08911CEF
:101A68001A4B53F8210005F0030399000F238B400C
:101A780020EA0300B6F1904F3FF430AF104B9E427E
:101A880012D003F580639E4210D003F580639E4216
:101A98000ED003F580639E420CD003F580639E420E
:101AA8003FF41AAF06231AE7012318E7022316E7C3
:101AB800032314E7042312E703B0BDE8F08300BF53
:101AC80000040048F03C000800001110000001402C
:101AD800000401400010024070B5054614460E4649
:101AE80021B1012C08D86CB1AE6170BD40F29D11D6
:101AF8000548FFF754FDF4E74FF4CF710248FFF7AC
:101B08004EFDF0E7AE62F0E7F03C000870470000D9
:101B180008B5054B5B69034200D108BD024B58610B
:101B2800FFF7F4FFF9E700BF000401402DE9F04199
:101B380004464268A14B9A4200F28980A368B3F137
:101B4800805F04D01BB1B3F5805F40F086802268C7
:101B58009B4B9A4200F08780E368B3F5805F07D01B
:101B680033B1B3F5405F03D0B3F5005F40F0878031
:101B7800236A1BB1B3F5006F40F08780236933B146
:101B8800B3F5806F03D0B3F5C06F40F0848063690C
:101B980033F00C0200D123B940F649318948FFF7E8
:101BA800FEFCA36943B1B3F5807F05D0B3F5007F90
:101BB80002D0B3F5407F74D1E36913B1B3F5004F98
:101BC80075D1636A0B2B78D8A368226913436269BD
:101BD8001343E2691343626E1343216808687A4A23
:101BE80002401A430A602268536823F44053E168AC
:101BF8000B435360A1692268714B9A4201D0236A52
:101C08001943936823F06E4323F430630B439360C6
:101C18002268D36A23F00F03616A0B43D3622268F8
:101C28006A4B9A424FD06A4B9A4260D0694B9A42AB
:101C380076D0694B9A4200F09C80684B9A4200F03B
:101C4800AB805F4B9A4200F0D080102376E040F6DC
:101C58003C315C48FFF7A3FC70E740F63D3159483A
:101C6800FFF79DFC73E7E368002B87D0B3F5005FAF
:101C780084D04FF434615348FFF791FC7EE740F677
:101C880044315048FFF78BFC72E740F645314D4828
:101C9800FFF785FC72E740F648314A48FFF77FFCBA
:101CA80075E740F64A314748FFF779FC84E740F684
:101CB8004B314448FFF773FC83E740F64C31414809
:101CC800FFF76DFC80E703F55843D3F8883003F03D
:101CD8000303032B09D8DFE803F002049D06012360
:101CE8002CE004232AE0082328E0102326E003F54B
:101CF800E633D3F8883003F00C030C2B0ED8DFE85A
:101D080003F0070D0D0D090D0D0D8B0D0D0D0B00BD
:101D1800002313E0042311E008230FE010230DE053
:101D280003F5E433D3F8883003F03003202B75D063
:101D38001BD8002B74D0102B74D1042320498A425D
:101D480000F08C80E069B0F5004F00F0CA80082BE5
:101D580000F23681DFE813F0F8001B01F6003401C9
:101D68001E013401340134012101302B5CD10823D8
:101D7800E4E703F5E233D3F8883003F0C003802B9F
:101D880054D005D8002B53D0402B53D10423D5E78A
:101D9800C02B51D10823D1E703F5E033D3F88830BD
:101DA80003F44073B3F5007F48D019D8002B47D00F
:101DB800B3F5807F46D10423C0E700BF301A1E0167
:101DC80000800040283D0008F369FFCF003801403B
:101DD8000044004000480040004C004000500040D3
:101DE800B3F5407F30D10823A8E703F5C833D3F80B
:101DF800883003F44063B3F5006F27D005D83BB3B0
:101E0800B3F5806F26D1042398E7B3F5406F23D14B
:101E1800082393E7022391E702238FE702238DE744
:101E280000238BE7102389E7102387E7022385E740
:101E3800002383E7102381E710237FE702237DE750
:101E480000237BE7102379E7102377E7022375E760
:101E5800002373E7102371E710236FE7082B00F2C4
:101E68009F80DFE803F0089D3C9D399D9D9D0500FE
:101E78004FF4004004E001F037F9002800F09280A8
:101E8800626A524B33F81220B0FBF2F3656805EB37
:101E98004501994200F28880B3EB053F00F2868045
:101EA8004FF0000892B200234146FEF7B1F90F0245
:101EB80047EA1067060268082A464346301847F181
:101EC8000001FEF7A5F9A0F54072414B9A426FD880
:101ED8002368D860404650E000F060FFCDE73D48F9
:101EE800CEE7082B66D8DFE803F0072705652A65E3
:101EF80065650B00374803E001F0F6F800285BD071
:101F0800626A324B33F81230B0FBF3F06268530860
:101F180003EB4000B0FBF2F080B2A0F110024FF6E4
:101F2800EF739A424AD820F00F03C0F342001843D7
:101F38002368D860002020E001F0E8F8DEE700F030
:101F48002DFFDBE7234803E001F0CEF8002839D065
:101F5800626A1E4B33F81230B0FBF3F0636800EB93
:101F68005300B0FBF3F080B2A0F110024FF6EF730C
:101F78009A4229D82368D86000200123A4F86A303F
:101F8800A4F868300023E3662367BDE8F08101F018
:101F9800BDF8DBE700F002FFD8E74FF40040D7E7D1
:101FA8000120EAE70020E8E70120E6E70120E4E76E
:101FB8000120E2E70120E0E70020DEE70120DCE77E
:101FC8000120DAE70020D8E70120D6E7603D0008C5
:101FD800FFFC0F000024F40010B50446836AFF2BB1
:101FE80000F2A180A36A13F0010F0CD0E36A1BB1C1
:101FF800B3F5003F40F09D802268536823F4003316
:10200800E16A0B435360A36A13F0020F0CD0236BF1
:102018001BB1B3F5803F40F092802268536823F4E7
:102028008033216B0B435360A36A13F0040F0CD069
:10203800636B1BB1B3F5802F40F08780226853682B
:1020480023F48023616B0B435360A36A13F0080FDA
:102058000BD0A36B13B1B3F5004F7CD12268536842
:1020680023F40043A16B0B435360A36A13F0100FD2
:102078000BD0E36B13B1B3F5805F72D1226893681C
:1020880023F48053E16B0B439360A36A13F0200F92
:102098000BD0236C13B1B3F5005F68D12268936845
:1020A80023F40053216C0B439360A36A13F0400F91
:1020B80028D02368434A934214D0A2F5744293422D
:1020C80010D002F5806293420CD002F580629342F0
:1020D80008D002F58062934204D040F63D413A4868
:1020E800FFF75DFA636C13B1B3F5801F45D1226821
:1020F800536823F48013616C0B435360636CB3F52E
:10210800801F40D0A36A13F0800F0BD0E36C13B18B
:10211800B3F5002F50D12268536823F40023E16CF3
:102128000B43536010BD40F60E412748FFF737FABE
:1021380058E740F613412448FFF731FA5CE740F6C8
:102148001A412148FFF72BFA67E740F621411E485C
:10215800FFF725FA72E740F628411B48FFF71FFAF8
:102168007CE740F62F411848FFF719FA86E740F652
:1021780036411548FFF713FA90E740F63E411248FA
:10218800FFF70DFAB3E7A36C43B1B3F5001F05D011
:10219800B3F5800F02D0B3F5C00F07D1226853689A
:1021A80023F4C003A16C0B435360ABE740F64341F3
:1021B8000548FFF7F4F9F1E740F64B410248FFF70D
:1021C800EEF9A8E700380140283D00082DE9F8435A
:1021D80005460F4616469946DDF820802C68E469C6
:1021E80037EA04030CBF01240024B44241D1B8F1FA
:1021F800FF3FF3D000F06EFAA0EB0900404524D869
:10220800B8F1000F21D02B681A6812F0040FE5D03E
:10221800DA6912F4006FE1D04FF400621A622A689A
:10222800136823F4D07313602A68936823F00103BA
:1022380093602023C5F88030C5F88430C5F888300D
:10224800002385F87C30032014E02A68136823F4FF
:10225800D07313602A68936823F0010393602023E6
:10226800C5F88030C5F88430002385F87C30032019
:1022780000E00020BDE8F88330B583B004460023B1
:10228800C0F8883000F026FA054623681B6813F06A
:10229800080F0ED123681B6813F0040F17D12023F1
:1022A800C4F88030C4F88430002084F87C0003B07F
:1022B80030BD6FF07E430093034600224FF40011B7
:1022C8002046FFF783FF0028E4D00320EFE76FF0F4
:1022D8007E4300932B4600224FF480012046FFF7EF
:1022E80075FF0028DBD00320E1E70000002870D04C
:1022F80010B504468369002B43D00368364A9342DD
:1023080018D0A2F57442934214D002F58062934229
:1023180010D002F5806293420CD002F5806293429D
:1023280008D002F54052934204D040F235112B48B0
:10233800FFF735F9D4F88030002B40D02423C4F8B7
:1023480080302268136823F0010313602046FFF7EA
:10235800EDFB012814D0A36A002B36D122685368FC
:1023680023F4904353602268936823F02A03936010
:102378002268136843F0010313602046FFF77CFFCF
:1023880010BD0368144A9342D4D0A2F57442934214
:10239800D0D002F580629342CCD002F5806293429D
:1023A800C8D002F580629342C4D002F540529342ED
:1023B800C0D04FF49D710948FFF7F1F8BAE784F8E7
:1023C8007C302046FFF7BEF9B8E72046FFF704FE49
:1023D800C4E70120704700BF00380140283D0008CD
:1023E80084B00346184A92E8030004AA02E90300ED
:1023F80016496A4603C982E803005A6E32B90122B7
:10240800A3F86A20A3F8682004B0704719688A689E
:10241800C2F34262886804A901EB507010F8081CE6
:10242800C90010F8100C91FBF0F1A3F86A1004A988
:102438000A4412F8081CC90012F8102C91FBF2F299
:10244800A3F86820E0E700BFE83C0008783D0008F2
:1024580010B5044603681D4A934218D0A2F5744289
:10246800934214D002F58062934210D002F5806244
:1024780093420CD002F58062934208D002F5405294
:10248800934204D040F211211148FFF788F894F8DC
:102498007C30012B17D0012384F87C302423C4F826
:1024A800803022681368116821F00101116023F05F
:1024B800005300206066226813602023C4F880302F
:1024C80084F87C0010BD0220FCE700BF0038014002
:1024D800843D000870B504460D4603682A4A9342B5
:1024E80018D0A2F57442934214D002F58062934248
:1024F80010D002F5806293420CD002F580629342BC
:1025080008D002F54052934204D040F23F211F48C0
:10251800FFF745F875B1B5F1005F0BD0B5F1804F05
:1025280008D0B5F1C04F05D0B5F1004F02D0B5F1D4
:10253800204F21D194F87C30012B23D0012384F83B
:102548007C302423C4F8803023681E681A6822F07F
:1025580001021A602368996821F060410D439D606B
:102568002046FFF73DFF23681E602023C4F8803013
:10257800002084F87C0070BD4FF410710348FFF709
:102588000EF8D7E70220F6E700380140843D00083E
:1025980070B504460D4603682A4A934218D0A2F53E
:1025A8007442934214D002F58062934210D002F52F
:1025B800806293420CD002F58062934208D002F503
:1025C8004052934204D04FF41C711F48FEF7E7FFB6
:1025D80075B1B5F1007F0BD0B5F1806F08D0B5F1BA
:1025E800C06F05D0B5F1006F02D0B5F1206F21D1D1
:1025F80094F87C30012B23D0012384F87C302423E9
:10260800C4F8803023681E681A6822F001021A6034
:102618002368996821F060610D439D602046FFF7AB
:10262800DFFE23681E602023C4F88030002084F871
:102638007C0070BD40F271210348FEF7B0FFD7E778
:102648000220F6E700380140843D0008104B1B6863
:102658000BB90120704710B504464FF47A70B0FBEF
:10266800F3F30C4A1068B0FBF3F001F07DF968B998
:102678000F2C01D901200AE0002221464FF0FF303B
:1026880001F014F9044B1C60002000E0012010BD8B
:1026980000000020080000200400002010B50320DE
:1026A80001F0E6F80020FFF7D1FF10B10124204621
:1026B80010BD0446FFF78CF8F9E70000034A1368D9
:1026C800034909680B441360704700BFE404002005
:1026D80000000020014B1868704700BFE404002088
:1026E80038B50446FFF7F6FF0546B4F1FF3F02D0C0
:1026F800044B1B681C44FFF7EDFF401BA042FAD3B4
:1027080038BD00BF00000020124AD36803F003035D
:10271800D068C0F303100130032B11D00E4BB3FB6C
:10272800F0F30C4AD068C0F3062000FB03F0094B15
:10273800DB68C3F3416301335B00B0FBF3F0704720
:10274800064BB3FBF0F3D068C0F3062000FB03F0A0
:10275800EDE700BF001002400024F40000366E01CF
:10276800002800F0FF8270B582B00446036813B1F8
:1027780013F02F0F38D0236813F0010F4BD0636884
:102788002BB1B3F5803F02D0B3F5A02F32D1B24AB6
:10279800936803F00C03D26802F003020C2B2FD0CD
:1027A800082B2FD06368B3F5803F63D0B3F5A02F13
:1027B80066D0A94B1A6822F480321A601A6822F48B
:1027C80080221A606368002B67D0FFF783FF0546F5
:1027D800A14B1B6813F4003F1DD1FFF77BFF401B83
:1027E8006428F5D90320C6E240F243119B48FEF75E
:1027F800D6FEC0E740F249119848FEF7D0FEC6E77A
:10280800032ACDD1944B1B6813F4003F03D06368AF
:10281800002B00F0A982236813F0020F72D0E3683E
:1028280013B1B3F5807F47D123697F2B4AD88A4AF1
:10283800936803F00C03D26802F003020C2B47D014
:10284800042B47D0E368002B00F08680824A136887
:1028580043F480731360FFF73DFF05467E4B1B680A
:1028680013F4806F6FD1FFF735FF401B0228F5D9AD
:10287800032080E2784A136843F480331360A1E7A9
:1028880003F18043A3F53C331A6842F480221A60AE
:102898001A6842F480321A6094E7FFF71BFF054676
:1028A8006D4B1B6813F4003FB5D0FFF713FF401BB7
:1028B8006428F5D903205EE24FF4BF716748FEF73C
:1028C8006EFEB1E740F27F116448FEF768FEAEE79E
:1028D800022AB5D1604B1B6813F4806F03D0E368FC
:1028E800002B00F043825C4A536823F0FE432169C1
:1028F80043EA016353605A4B1868FFF7A7FE0028A4
:1029080040F03682236813F0080F56D06369012B14
:1029180036D86369002B39D04F4AD2F8943043F047
:102928000103C2F89430FFF7D5FE05464A4BD3F8A9
:10293800943013F0020F40D1FFF7CCFE401B022861
:10294800F4D9032017E2444A536823F0FE4321696F
:1029580043EA01635360D5E73F4A136823F4807361
:102968001360FFF7B7FE05463B4B1B6813F4806FF7
:10297800C8D0FFF7AFFE401B0228F5D90320FAE1C3
:102988004FF4E3713548FEF70AFEC2E7324AD2F83F
:10299800943023F00103C2F89430FFF79BFE0546FC
:1029A8002D4BD3F8943013F0020F06D0FFF792FEA8
:1029B800401B0228F4D90320DDE1236813F0040F3B
:1029C80000F08F80A368012B01D9052B3BD1224B46
:1029D8009B6D13F0805F3CD11F4B9A6D42F0805283
:1029E8009A659B6D03F080530193019B01251D4B54
:1029F8001B6813F4807F37D0A368012B48D0052BC0
:102A08004ED0154BD3F8902022F00102C3F8902045
:102A1800D3F8902022F00402C3F89020A368002B7A
:102A28004CD0FFF757FE06460B4BD3F8903013F007
:102A3800020F55D1FFF74EFE801B41F288339842B2
:102A4800F2D9032097E14FF4F9710448FEF7A7FD86
:102A5800BDE70025CBE700BF00100240C03D0008DD
:102A68000400002000700040A34A136843F48073F8
:102A78001360FFF72FFE06469F4B1B6813F4807FF9
:102A8800BAD1FFF727FE801B0228F5D9032072E18F
:102A98009A4AD2F8903043F00103C2F89030BDE76B
:102AA800964BD3F8902042F00402C3F89020D3F854
:102AB800902042F00102C3F89020AFE7FFF70AFE2A
:102AC80006468E4BD3F8903013F0020F08D0FFF76C
:102AD80001FE801B41F288339842F2D903204AE173
:102AE800FDB9236813F0200F3ED0A369012B1ED82F
:102AF800A36913B3814AD2F8983043F00103C2F8AE
:102B08009830FFF7E7FD05467C4BD3F8983013F073
:102B1800020F29D1FFF7DEFD401B0228F4D903205C
:102B280029E1764A936D23F080539365D9E740F203
:102B380039217348FEF733FDDAE7704AD2F8983046
:102B480023F00103C2F89830FFF7C4FD05466B4B2C
:102B5800D3F8983013F0020F06D0FFF7BBFD401BE7
:102B68000228F4D9032006E1E369022B45D8E3697A
:102B7800002B00F0FF80614A926802F00C020C2AD8
:102B880000F0C280022B40F09680236A1BB1022B12
:102B980001D0032B37D1636A013B0F2B39D8A36AC5
:102BA800083B772B3BD8E36A023B1D2B3DD8236BB0
:102BB800022B05D0042B03D0062B01D0082B3AD1C9
:102BC800636B022B05D0042B03D0062B01D0082BF6
:102BD80037D14A4A136823F080731360FFF77AFDF0
:102BE8000546464B1B6813F0007F30D0FFF772FD97
:102BF800401B0228F5D90320BDE040F2622140487D
:102C0800FEF7CDFCB3E74FF41B713D48FEF7C7FC58
:102C1800C1E740F26D213A48FEF7C1FCBFE740F238
:102C28006E213748FEF7BBFCBDE740F26F21344800
:102C3800FEF7B5FCBBE74FF41C713148FEF7AFFC5B
:102C4800BEE740F271212E48FEF7A9FCC1E72B4AE6
:102C5800D3682C491940236A606A013843EA001393
:102C6800A06A43EA0023206B4008013843EA405336
:102C7800606B4008013843EA4063E06A43EAC06396
:102C88000B43D360136843F080731360D36843F039
:102C98008073D360FFF71EFD0446184B1B6813F0C2
:102CA800007F06D1FFF716FD001B0228F5D9032087
:102CB80061E000205FE0114B1A6822F080721A6010
:102CC800DA6822F00302DA60DA6822F0887222F405
:102CD8008032DA60FFF7FEFC0446084B1B6813F0ED
:102CE800007F06D0FFF7F6FC001B0228F5D9032069
:102CF80041E000203FE000BF0070004000100240AB
:102D0800C03D00080C809F01012B36D0224BDB68A8
:102D180003F00301226A914231D103F0F002616AA3
:102D28000139B2EB011F2CD103F4FE42A16AB2EBC8
:102D3800012F28D103F07842E16AB2EBC16F24D1A8
:102D480003F4C001226B5208013AB1EB425F1ED175
:102D580003F0C063626B5208013AB3EB426F18D1BB
:102D6800002008E001207047012004E0012002E073
:102D7800012000E0002002B070BD0120FBE7012027
:102D8800F9E70120F7E70120F5E70120F3E7012043
:102D9800F1E70120EFE700BF001002401E4B9B68DF
:102DA80003F00C03042B32D01B4B9B6803F00C037D
:102DB800082B2ED0184B9B6803F00C030C2B01D06A
:102DC80000207047144AD36803F00303D068C0F3A7
:102DD80003100130032B11D0104BB3FBF0F30E4A54
:102DE800D068C0F3062000FB03F00B4BDB68C3F38D
:102DF800416301335B00B0FBF3F07047084BB3FB52
:102E0800F0F3D068C0F3062000FB03F0EDE70348B9
:102E180070470348704700BF001002400024F400C8
:102E280000366E01002800F04481F8B50D460446CE
:102E3800036813F00F0F02D033F00F0304D040F2F1
:102E48000A319F48FEF7ABFB0F2D32D89D4B1B680C
:102E580003F00F03AB420BD29A4A136823F00F0317
:102E68002B431360136803F00F03AB4240F0238138
:102E7800266816F001066FD06368013B022B1ED846
:102E88006368032B21D0022B3FD08F4B1B6813F4B0
:102E9800806F00F01281FFF781FF8C4B98423FD979
:102EA800894A936823F0F00343F0800393608026F7
:102EB80037E040F20B318248FEF771FBC6E740F27B
:102EC80022317F48FEF76BFBDAE77F4B1B6813F074
:102ED800007F01D10120B9E0FFF716FC7B4B984237
:102EE8001AD9794B9B6813F0F00F05D0266816F0B5
:102EF800020616D0A3688BB9734A936823F0F003CF
:102F080043F08003936080260BE06F4B1B6813F43B
:102F1800003FC0D1012099E0002602E0002600E031
:102F28000026694A936823F0030361680B439360A2
:102F3800FFF7D0FB0746644B9B6803F00C036268FD
:102F4800B3EB820F08D0FFF7C5FBC01B41F28833F3
:102F58009842F0D9032079E0236813F0020F7CD05F
:102F680013F0040F04D0584A936843F4E063936065
:102F7800236813F0080F06D0534A936823F47C5350
:102F880043F4E0639360A3687BB1802B0DD0902B52
:102F98000BD0A02B09D0B02B07D0C02B05D0D02B3D
:102FA80003D0E02B01D0F02B51D1474A936823F08E
:102FB800F003A1680B439360424B1B6803F00F03B7
:102FC800AB4252D8236813F0040F14D0E3685BB106
:102FD800B3F5806F08D0B3F5A06F05D0B3F5C06F17
:102FE80002D0B3F5E06F58D1374A936823F4E06311
:102FF800E1680B439360236813F0080F15D0236929
:103008005BB1B3F5806F08D0B3F5A06F05D0B3F509
:10301800C06F02D0B3F5E06F45D12B4A936823F413
:103028006053216943EAC1039360FFF7B7FE264B5B
:103038009B68C3F30313264AD35C03F01F03D840ED
:10304800244B1860244B1868FFF700FBF8BD40F2CA
:1030580079311B48FEF7A3FAA7E7802EACD11A4AAC
:10306800936823F0F0039360A6E7164A136823F0E9
:103078000F032B431360FFF72DFB0646114B1B680C
:1030880003F00F03AB429DD0FFF724FB801B41F2F6
:1030980088339842F2D90320D8E740F29B31084898
:1030A800FEF77DFAA0E740F2A2310548FEF777FA6D
:1030B800B3E7012070470120C8E70120C6E700BF39
:1030C800C03D0008002002400010024000B4C404C3
:1030D800A03E00080800002004000020014B1868EA
:1030E800704700BF0800002008B5FFF7F7FF054B41
:1030F8009B68C3F30223044AD35C03F01F03D84040
:1031080008BD00BF00100240B03E000808B5FFF738
:10311800E5FF054B9B68C3F3C223044AD35C03F065
:103128001F03D84008BD00BF00100240B03E000891
:10313800F0B583B004460368C3F31303002B33D000
:10314800236813F4002F00F08580236D43B1B3F595
:10315800807F05D0B3F5007F02D0B3F5407F28D13A
:10316800394B9B6D13F0805F28D1374B9A6D42F035
:1031780080529A659B6D03F080530193019B012651
:10318800324A136843F480731360FFF7A3FA0546C5
:103198002E4B1B6813F4807F12D1FFF79BFA401B5C
:1031A8000228F5D903250CE085212948FEF7F7F90F
:1031B800C6E78D212648FEF7F2F9D1E70026DFE7BA
:1031C800002545BB204BD3F8903013F4407315D03D
:1031D800226D9A4212D01C4AD2F8903023F44073E0
:1031E800D2F8901041F48031C2F89010D2F89010C3
:1031F80021F48031C2F89010C2F8903013F0010F1A
:1032080010D145B9104AD2F8903023F44073216D9B
:103218000B43C2F89030F6B10B4A936D23F08053FC
:10322800936518E0FFF756FA0746074BD3F8903036
:1032380013F0020FE5D1FFF74DFAC01B41F28833B6
:103248009842F2D90325DCE70010024000700040E4
:10325800F83D00080025236813F0010F10D06368BB
:10326800012B04D9032B02D0022B40F0C781B64AA8
:10327800D2F8883023F0030361680B43C2F8883022
:10328800236813F0020F11D0A36833B1042B04D0C4
:103298000C2B02D0082B40F0B681AB4AD2F888300C
:1032A80023F00C03A1680B43C2F88830236813F09D
:1032B800040F11D0E36833B1102B04D0302B02D0A7
:1032C800202B40F0A581A04AD2F8883023F03003A3
:1032D800E1680B43C2F88830236813F0080F11D057
:1032E800236933B1402B04D0C02B02D0802B40F08F
:1032F8009481954AD2F8883023F0C00321690B43A2
:10330800C2F88830236813F0100F14D063694BB1EA
:10331800B3F5807F06D0B3F5407F03D0B3F5007FC7
:1033280040F08181884AD2F8883023F4407361697B
:103338000B43C2F88830236813F0200F14D0A36918
:103348004BB1B3F5806F06D0B3F5406F03D0B3F53A
:10335800006F40F06E817C4AD2F8883023F44063D5
:10336800A1690B43C2F88830236813F0400F11D0CD
:10337800E36933B1B3F5805F03D0B3F5005F40F084
:103388005E81714AD2F8883023F44053E1690B43D7
:10339800C2F88830236813F0800F11D0236A33B144
:1033A800B3F5804F03D0B3F5004F40F04E81664A25
:1033B800D2F8883023F44043216A0B43C2F888309E
:1033C800236813F4807F11D0636A33B1B3F5803F6B
:1033D80003D0B3F5003F40F03E815B4AD2F8883015
:1033E80023F44033616A0B43C2F88830236813F42E
:1033F800003F0CD0A36A022B00F23381524AD2F864
:103408009C3023F00303A16A0B43C2F89C30236865
:1034180013F4007F14D0E36A4BB1B3F5802F06D0C4
:10342800B3F5002F03D0B3F5402F40F02081464A72
:10343800D2F8883023F44023E16A0B43C2F888307D
:10344800236813F4806F19D0236B4BB1B3F5801F39
:1034580006D0B3F5001F03D0B3F5401F40F00D812F
:10346800394AD2F8883023F44013216B0B43C2F851
:103478008830236BB3F5801F00F00581236813F4AF
:10348800006F19D0636B4BB1B3F5800F06D0B3F55D
:10349800000F03D0B3F5400F40F0FA802A4AD2F863
:1034A800883023F44003616B0B43C2F88830636BA8
:1034B800B3F5800F00F0F280236813F4805F16D014
:1034C800A36B33B1B3F1807F03D0B3F1007F40F039
:1034D800EA801D4AD2F8883023F04073A16B0B4371
:1034E800C2F88830A36BB3F1807F00F0E2802368D4
:1034F80013F4005F13D0E36B1BB1B3F1006F40F01E
:10350800DD80114AD2F8883023F04063E16B0B4329
:10351800C2F88830E36BB3F1006F00F0D580236800
:1035280013F4804F16D0236C1BB1B3F1006F40F039
:10353800D080054AD2F8883023F04063216C0B43D1
:10354800C2F88830236C01E000100240B3F1006F2C
:1035580000F0C580236813F4004F16D0636C33B1B4
:10356800B3F1805F03D0B3F1005F40F0BD806F4AD4
:10357800D2F8883023F04053616C0B43C2F888308E
:10358800636CB3F1805F00F0B580236813F4803F6B
:1035980016D0A36C33B1B3F1804F03D0B3F1004F11
:1035A80040F0AD80614AD2F8883023F04043A16CE6
:1035B8000B43C2F88830A36CB3F1804F00F0A580AC
:1035C800236813F4802F16D0E36CB3F5801F04D062
:1035D8001BB1B3F5001F40F09D80544AD2F89C30CF
:1035E80023F44013E16C0B43C2F89C30E36CB3F551
:1035F800001F00F09580284603B0F0BDE2214C483A
:10360800FDF7CDFF33E6EC214948FDF7C8FF44E656
:10361800F6214748FDF7C3FF55E640F2011144483B
:10362800FDF7BDFF65E64FF487714148FDF7B7FF29
:1036380078E64FF48D713E48FDF7B1FF8BE64FF405
:1036480092713B48FDF7ABFF9BE64FF49771384802
:10365800FDF7A5FFABE64FF49C713548FDF79FFFDA
:10366800BBE64FF4A2713248FDF799FFC6E64FF466
:10367800A8712F48FDF793FFD9E64FF4AD712C4898
:10368800FDF78DFFECE6D36843F48013D360F5E6CD
:103698004FF4B5712648FDF782FFFFE6D36843F47F
:1036A8008013D36008E740F27B112148FDF777FFCC
:1036B8000FE7D36843F48013D36018E740F28D1105
:1036C8001B48FDF76CFF1CE7D36843F48013D360F5
:1036D80025E74FF4CE711648FDF761FF29E7D36857
:1036E80043F48013D36035E74FF4D5711048FDF7E4
:1036F80056FF3CE7D36843F48033D36045E740F294
:10370800BB110B48FDF74BFF4CE7D36843F48033FC
:10371800D36055E74FF4E7710548FDF740FF5CE7D4
:10372800D36843F48013D36065E700BF00100240FC
:10373800F83D000810B5044628B1B0F5007F02D066
:10374800B0F5806F11D1002C3BD1414B1B6803F4BD
:10375800C063B3F5806F0DD03D4AD2F8803023F4B2
:103768008073C2F88030002010BD9E213948FDF7D3
:1037780016FFE8E7364AD2F8803023F48073C2F89F
:103788008030136823F4C06343F400731360324B32
:103798001A68322303FB02F3304AA2FB03239B0C73
:1037A800013300E0013B2A4A526912F4806F01D0CC
:1037B800002BF7D1264B5B6913F4806F44D10020AE
:1037C800D2E7B4F5007F08D0214A136823F4C06318
:1037D80043F4806313600020C6E71D4B1B6803F4A5
:1037E800C063B3F5806F08D0194AD2F8803043F42B
:1037F8008073C2F880300020B6E7154AD2F88030CE
:1038080043F48073C2F88030136823F4C06343F430
:1038180000731360104B1A68322303FB02F30F4A3C
:10382800A2FB03239B0C013300E0013B084A5269C9
:1038380012F4806F01D0002BF7D1054B5B6913F4AC
:10384800806F03D100208FE703208DE703208BE7EB
:1038580000700040303E00080800002083DE1B4353
:10386800024A936843F480439360704700700040B5
:1038780010B50446C31E042B0FD80A4AD36823F494
:10388800E0631B041B0C240204F4E064234343F0AC
:10389800BF6343F40033D36010BDA7210248FDF78E
:1038A8007EFEEAE700ED00E0683E000870B50546D8
:1038B8000C4616460F2A25D80F2C28D81B4BDB6838
:1038C800C3F30223C3F10701042928BF04211A1DE9
:1038D800062A21D9033B4FF0FF3202FA01F124EA0C
:1038E80001049C4002FA03F326EA03063443002D40
:1038F80014DB2401E4B205F1604505F5614585F85E
:10390800004370BDBF210A48FDF749FED4E7C02136
:103918000748FDF744FED1E70023DCE705F00F0573
:103928002401E4B2034B5C55EBE700BF00ED00E077
:10393800683E000814ED00E010B5041E0ADB002CF8
:1039480007DB04F01F02640901239340044A42F88C
:10395800243010BDD3210348FDF721FEEFE700BF57
:1039680000E100E0683E00080138B0F1807F0AD22B
:10397800064B5860064AF02182F823100020986010
:1039880007221A6070470120704700BF10E000E06E
:1039980000ED00E0054BD3F8882042F47002C3F82C
:1039A80088204FF000629A60704700BF00ED00E089
:1039B80008B5012220214FF09040FEF78DF84FF412
:1039C8009670FEF78DFE002220214FF09040FEF702
:1039D80083F84FF49670FEF783FE012008BD0000BF
:1039E8000D4885460D480E490E4A002302E0D4587A
:1039F800C4500433C4188C42F9D30B4A0B4C00232F
:103A080001E013600432A242FBD3FFF7C3FF00F0CA
:103A180011F8FDF7A0FDFEE70000022000000020DD
:103A28003C040020B43F00083C040020100500209E
:103A3800FEE7000070B50D4E0D4D761BB61006D092
:103A4800002455F8043B01349847A642F9D1094EA1
:103A5800094D761B00F038F9B61006D0002455F849
:103A6800043B01349847A642F9D170BDA83F00082D
:103A7800A83F0008B03F0008A83F0008F0B4860738
:103A880046D0541E002A3CD0CAB2034601E0013C8D
:103A980037D303F8012B9D07F9D1032C2AD9CDB2CE
:103AA80045EA05250F2C45EA054534D9A4F110024D
:103AB80022F00F0C03F120071609674403F11002E6
:103AC80042E9045542E902551032BA42F8D1721C53
:103AD80014F00C0F03EB021204F00F0613D0331F7F
:103AE80023F003030433134442F8045B9342FBD1ED
:103AF80006F003042CB1CAB21C4403F8012B9C4203
:103B0800FBD1F0BC704734461346002CF3D1F8E7DC
:103B180014460346C1E71A462646E0E7024B13B1AE
:103B2800024800F005B8704700000000453B000857
:103B3800002301461A46184600F01AB838B5084B53
:103B4800084D5B1B9C1007D0043B1D44013C55F8F5
:103B580004399847002CF9D1BDE8384000F0BAB8CC
:103B6800B43F0008B03F0008704700BF704700BF6F
:103B78002DE9F047DFF880A00646DAF800009846FD
:103B88000F469146FFF7F0FF1A4B1B68D3F84841E0
:103B980024B365681F2D26DC5EB9AB1C0135DAF845
:103BA8000000656044F82370FFF7E0FF0020BDE8DF
:103BB800F08704EB85030121C3F88890D4F88821A5
:103BC800A9400A43022EC4F88821C3F80881E4D129
:103BD800D4F88C311943C4F88C11DEE703F5A674C8
:103BE800C3F84841D5E7DAF80000FFF7BFFF4FF008
:103BF800FF30DCE7B83E000838040020FEE700BFCD
:103C080008B5062000F030F80120FFF7F7FF00BFE5
:103C18001F2938B5054621D8D0F8DC220C466AB1F0
:103C280052F8213053B1012B16D0591C10D0002561
:103C3800204642F824509847284638BD284600F0C8
:103C480031F8224601462846BDE8384000F014B84D
:103C580016230360012038BD002038BD16230360F9
:103C68004FF0FF3038BD00BF024B01461868FFF720
:103C7800CFBF00BF0C00002038B50C46084D0346E6
:103C88001146204600221C462A6000F015F8431C05
:103C980000D038BD2B68002BFBD0236038BD00BF97
:103CA8000C05002000F000B8024B58221A604FF0B3
:103CB800FF3070470C050020024B58221A604FF065
:103CC800FF3070470C050020F8B500BFF8BC08BCF1
:103CD8009E467047F8B500BFF8BC08BC9E467047C2
:103CE8000101010307010000447269766572732FB0
:103CF80053544D3332473478785F48414C5F4472AF
:103D0800697665722F5372632F73746D333267341B
:103D180078785F68616C5F6770696F2E6300000078
:103D2800447269766572732F53544D333247347831
:103D3800785F48414C5F4472697665722F537263AD
:103D48002F73746D3332673478785F68616C5F7590
:103D58006172742E63000000010002000400060076
:103D680008000A000C00100020004000800000013C
:103D78000804020408010101000000004472697689
:103D88006572732F53544D3332473478785F484106
:103D98004C5F4472697665722F5372632F73746D2A
:103DA8003332673478785F68616C5F756172745F0D
:103DB80065782E6300000000447269766572732F7F
:103DC80053544D3332473478785F48414C5F4472DE
:103DD800697665722F5372632F73746D333267344B
:103DE80078785F68616C5F7263632E63000000001F
:103DF800447269766572732F53544D333247347861
:103E0800785F48414C5F4472697665722F537263DC
:103E18002F73746D3332673478785F68616C5F72C2
:103E280063635F65782E6300447269766572732FE9
:103E380053544D3332473478785F48414C5F44726D
:103E4800697665722F5372632F73746D33326734DA
:103E580078785F68616C5F7077725F65782E630051
:103E6800447269766572732F53544D3332473478F0
:103E7800785F48414C5F4472697665722F5372636C
:103E88002F73746D3332673478785F68616C5F6361
:103E98006F727465782E6300000000000000000057
:103EA80001020304060708090000000001020304D8
:043EB80010000020D6
:103EBC0008B10181B0B000840000000008B101819C
:103ECC00B0B000840000000008B10181B0B00084E3
:043EDC0000000000E2
:103EE00068C3FF7F01000000BCC6FF7FB0A902804D
:103EF00050C7FF7FB0B0A880A0C7FF7F01000000BF
:103F0000ACC7FF7FB0B0AA80E0C7FF7FAE71B280C0
:103F1000A4C8FF7F01000000A0C8FF7FAB3F38802E
:103F2000F8C8FF7F0100000004C9FF7FB0B0AA807D
:103F300040C9FF7F01000000E8C9FF7FAB0EB280DF
:103F400058CAFF7FB0AF0880F8CCFF7F01000000A7
:103F5000FCCCFF7FAD3F02806CCFFF7F01000000F3
:103F600048D1FF7F008404805CD1FF7F0100000006
:103F700058D1FF7FB0AD0480ECD3FF7FB0A80380A1
:103F800010D4FF7F44FFFF7F14D4FF7F48FFFF7FE3
:103F900020D4FF7F0100000020FAFF7F20FFFF7F79
:083FA00046FAFF7F010000005A
:083FA800253B0008FD010008A3
:043FB000D90100082B
:103FB40001000000100000000024F40010000020A4
:103FC40000000000FC02002064030020CC03002059
:103FD40000000000000000000000000000000000DD
:103FE40000000000000000000000000000000000CD
:103FF40000000000000000000000000000000000BD
:1040040000000000000000000000000000000000AC
:10401400000000000000000000000000000000009C
:10402400000000000000000000000000000000008C
:10403400000000000000000000000000000000007C
:10404400000000000000000000000000000000006C
:10405400000000000000000000000000000000005C
:10406400000000000000000001000000000000004B
:104074000E33CDAB34126DE6ECDE05000B00000010
:10408400000000000000000000000000000000002C
:10409400000000000000000000000000000000001C
:1040A400000000000000000000000000000000000C
:1040B40000000000000000000000000000000000FC
:0C43E4000000000000000000E8040020C1
:04000005080039E9CD
:00000001FF
