:020000040800F2
:100000000000022065140008A1030008A3030008F3
:10001000A5030008A7030008A903000800000000CA
:10002000000000000000000000000000AB0300081A
:10003000AD03000800000000AF030008B103000892
:10004000B5140008B5140008B5140008B51400086C
:10005000B5140008B5140008B5140008B51400085C
:10006000B5140008B5140008B5140008B51400084C
:10007000B5140008B5140008B5140008B51400083C
:10008000B5140008B5140008B5140008B51400082C
:10009000B5140008B5140008B5140008B51400081C
:1000A000B5140008B5140008B5140008B51400080C
:1000B000B5140008B5140008B5140008B5140008FC
:1000C000B5140008B5140008B5140008B5140008EC
:1000D000B5140008B5140008B5140008B5140008DC
:1000E000B5140008B5140008B5140008B5140008CC
:1000F000B5140008B5140008B5140008B5140008BC
:10010000B5140008B5140008B5140008B5140008AB
:10011000B5140008B5140008B5140008B51400089B
:10012000B5140008B5140008B5140008B51400088B
:10013000B5140008B5140008B5140008B51400087B
:10014000B5140008B5140008B5140008B51400086B
:10015000B5140008B5140008B5140008B51400085B
:10016000B5140008B5140008B5140008B51400084B
:10017000B5140008B5140008B5140008B51400083B
:10018000B5140008B5140008B5140008B51400082B
:10019000B514000800000000B5140008B5140008EC
:1001A000B5140008B5140008B5140008B51400080B
:1001B000B5140008B5140008B5140008B5140008FB
:1001C000B5140008B5140008B5140008B5140008EB
:0801D000B5140008B514000885
:1001D8000348044B834202D0034B03B118477047CE
:1001E8000C0000200C000020000000000548064913
:1001F800091A891001EBD171491002D0034B03B1E0
:10020800184770470C0000200C0000200000000078
:1002180010B5064C237843B9FFF7DAFF044B13B146
:100228000448AFF300800123237010BD0C000020A8
:1002380000000000B814000808B5044B1BB10449BD
:100248000448AFF30080BDE80840CFE70000000095
:1002580010000020B814000870B50D4E0D4D761B27
:10026800B61006D00024013455F8043B9847A6423E
:10027800F9D1094E094D761B01F01AF9B61006D0CE
:100288000024013455F8043B9847A642F9D170BDC3
:10029800C0150008C0150008C4150008C0150008DE
:1002A800F0B4860743D0541E002A3ED0CAB2034693
:1002B80002E014F1FF3438D303F8012B9D07F8D17D
:1002C800032C2BD9CDB245EA05250F2C45EA054567
:1002D80016D9A4F110073F0903F1200606EB07160B
:1002E80003F1100242E9045542E902551032B242C4
:1002F800F8D104F00F040137032C03EB07130DD9D1
:100308001E462246043A032A46F8045BFAD8221FFE
:1003180022F003020432134404F003042CB1C9B2DE
:100328001C4403F8011B9C42FBD1F0BC70471446E7
:100338000346C5E710B594B03822002106A8FFF798
:10034800AFFF0024019402940394049405944FF49D
:10035800007000F0E9FE022306934FF480730993BE
:1003680040230A930D9406A800F020FA0F23019366
:1003780001230293039404940594214601A800F0F4
:1003880075FD14B010BD08B500F0C2F9FFF7D2FF33
:1003980000F0E8FFFEE770477047FEE7FEE7FEE77C
:1003A800FEE770477047704708B500F0C1F908BD0F
:1003B80082B00D4B1A6E42F001021A661A6E02F0F4
:1003C80001020092009A9A6D42F080529A659B6DE4
:1003D80003F080530193019B044A936843F48043DC
:1003E800936002B0704700BF0010024000700040E8
:1003F8002DE9F04383B006460C46B0F1904F1AD071
:10040800A94B984217D003F58063984213D003F59F
:10041800806398420FD003F5806398420BD003F5B0
:100428008063984207D003F58063984203D0B121D6
:100438009E48FFF7B0FF23689AB212B11B0C1B0449
:100448001BB1B2219948FFF7A6FF6368012B1ED99B
:10045800112B1CD0022B1AD0122B18D0944A93427D
:1004680015D002F58012934211D002F58012934202
:100478000DD0A2F5F812934209D002F580129342EA
:1004880005D002F58012934201D0032B04D1A36852
:10049800022B06D800254AE0B3218448FFF77BFFEA
:1004A800F5E7B4218148FFF776FFF3E7C4217F48D9
:1004B800FFF771FF52E0DD217C48FFF76CFF98E001
:1004C800052300E000238B4003430232794941F8B9
:1004D8002230794B1A68FB4303EA0201606810F482
:1004E800803F01D047EA0201734A1160526803EA6B
:1004F8000201606810F4003F01D047EA02016E4A29
:100508005160926803EA0201606810F4801F01D00C
:1005180047EA0201684A9160D2681340616811F4A1
:10052800001F01D047EA0203634AD36001352768F8
:1005380037FA05F300F0B5804FF0010808FA05F81E
:1005480018EA0707F2D063685A1E012A03D9112B4B
:1005580001D0122B16D1E368032BA7D8B268690023
:1005680003238B4022EA0302E3688B401343B36002
:10057800736823EA08086368C3F30013AB4043EACF
:1005880008037360F2684FEA45094FF0030808FA58
:1005980009F86FEA080808EA0202A36803FA09F3EF
:1005A8001343F3606368022B01D0122B31D1B6F1EB
:1005B800904F1AD03C4B9E4217D003F580639E4261
:1005C80013D003F580639E420FD003F580639E42EB
:1005D8000BD003F580639E4207D003F580639E42EB
:1005E80003D0DC213148FFF7D6FE23690F2B3FF6F5
:1005F80062AFEA08083256F8220005F007039900AE
:100608000F238B4020EA030023698B40034346F8FD
:100618002230336808EA0308636803F0030303FA27
:1006280009F343EA08033360636813F0805F3FF41B
:100638007DAF224B1A6E42F001021A661B6E03F060
:1006480001030193019BAA08911C1A4B53F821003E
:1006580005F0030399000F238B4020EA0300B6F14D
:10066800904F3FF42FAF104B9E4212D003F580639A
:100678009E4210D003F580639E420ED003F580633E
:100688009E420CD003F580639E423FF419AF0623C7
:1006980019E7012317E7022315E7032313E70423C8
:1006A80011E703B0BDE8F08300040048D014000847
:1006B8000000111000000140000401400010024039
:1006C800104B1B680BB90120704710B504464FF456
:1006D8007A70B0FBF3F30C4A1068B0FBF3F000F04B
:1006E8001DFE68B90F2C01D901200AE0002221461D
:1006F8004FF0FF3000F0CCFD044B1C60002000E000
:10070800012010BD00000020080000200400002087
:1007180010B5032000F09EFD0020FFF7D1FF10B1B7
:100728000124204610BD0446FFF742FEF9E7000009
:10073800034A1368034909680B441360704700BFF4
:100748002800002000000020014B1868704700BFF7
:1007580028000020124AD36803F00303D068C0F3CE
:1007680003100130032B11D00E4BB3FBF0F30C4AEE
:10077800D068C0F3062000FB03F0094BDB68C3F325
:10078800416301335B00B0FBF3F07047064BB3FBEA
:10079800F0F3D068C0F3062000FB03F0EDE700BFDC
:1007A800001002400024F40000127A00002800F033
:1007B800098370B582B00446036813B113F02F0F94
:1007C80038D0236813F0010F4BD063682BB1B3F511
:1007D800803F02D0B3F5A02F32D1B24A936803F01C
:1007E8000C03D26802F003020C2B2FD0082B2FD059
:1007F8006368B3F5803F63D0B3F5A02F66D0A94BEB
:100808001A6822F480321A601A6822F480221A6068
:100818006368002B67D0FFF797FF0546A14B1B685D
:1008280013F4003F1DD1FFF78FFF401B6428F5D953
:100838000320D0E240F24B119B48FFF7ACFDC0E724
:1008480040F251119848FFF7A6FDC6E7032ACDD11B
:10085800944B1B6813F4003F03D06368002B00F02F
:10086800B382236813F0020F72D0E36813B1B3F5B3
:10087800807F47D123697F2B4AD88A4A936803F03F
:100888000C03D26802F003020C2B47D0042B47D08C
:10089800E368002B00F08680824A136843F4807373
:1008A8001360FFF751FF05467E4B1B6813F4806FFA
:1008B8006FD1FFF749FF401B0228F5D903208AE2D0
:1008C800784A136843F480331360A1E703F1804347
:1008D800A3F53C331A6842F480221A601A6842F47D
:1008E80080321A6094E7FFF72FFF05466D4B1B68AF
:1008F80013F4003FB5D0FFF727FF401B6428F5D954
:10090800032068E24FF4C3716748FFF744FDB1E77D
:1009180040F287116448FFF73EFDAEE7022AB5D1E1
:10092800604B1B6813F4806F03D0E368002B00F062
:100938004D825C4A536823F0FE43216943EA016310
:1009480053605A4B1868FFF7BBFE002840F04082FE
:10095800236813F0080F56D06369012B36D86369F2
:10096800002B39D04F4AD2F8943043F00103C2F833
:100978009430FFF7E9FE05464A4BD3F8943013F05C
:10098800020F40D1FFF7E0FE401B0228F4D90320F4
:1009980021E2444A536823F0FE43216943EA016394
:1009A8005360D5E73F4A136823F480731360FFF759
:1009B800CBFE05463B4B1B6813F4806FC8D0FFF78E
:1009C800C3FE401B0228F5D9032004E24FF4E77167
:1009D8003548FFF7E0FCC2E7324AD2F8943023F0FA
:1009E8000103C2F89430FFF7AFFE05462D4BD3F84C
:1009F800943013F0020F06D0FFF7A6FE401B022822
:100A0800F4D90320E7E1236813F0040F00F08F8086
:100A1800A368012B01D9052B3BD1224B9B6D13F009
:100A2800805F3CD11F4B9A6D42F080529A659B6D56
:100A380003F080530193019B01251D4B1B6813F4A0
:100A4800807F37D0A368012B48D0052B4ED0154B9B
:100A5800D3F8902022F00102C3F89020D3F8902018
:100A680022F00402C3F89020A368002B4CD0FFF7B3
:100A78006BFE06460B4BD3F8903013F0020F55D19E
:100A8800FFF762FE801B41F288339842F2D90320B7
:100A9800A1E14FF4FD710448FFF77DFCBDE7002597
:100AA800CBE700BF00100240081500080400002032
:100AB80000700040B54A136843F480731360FFF771
:100AC80043FE0646B14B1B6813F4807FBAD1FFF78B
:100AD8003BFE801B0228F5D903207CE1AC4AD2F802
:100AE800903043F00103C2F89030BDE7A84BD3F82B
:100AF800902042F00402C3F89020D3F8902042F0EE
:100B08000102C3F89020AFE7FFF71EFE0646A04B90
:100B1800D3F8903013F0020F08D0FFF715FE801BB2
:100B280041F288339842F2D9032054E1FDB9236891
:100B380013F0200F3ED0A369012B1ED8A36913B36D
:100B4800934AD2F8983043F00103C2F89830FFF77F
:100B5800FBFD05468E4BD3F8983013F0020F29D1D0
:100B6800FFF7F2FD401B0228F4D9032033E1884A3D
:100B7800936D23F080539365D9E740F2412185486E
:100B8800FFF709FCDAE7824AD2F8983023F001032C
:100B9800C2F89830FFF7D8FD05467D4BD3F898305A
:100BA80013F0020F06D0FFF7CFFD401B0228F4D93F
:100BB800032010E1E369022B45D8E369002B00F01C
:100BC8000981734A926802F00C020C2A00F0B9807D
:100BD800022B40F09680236A1BB1022B01D0032B15
:100BE80037D1636A013B0F2B39D8A36A083B772BAF
:100BF8003BD8E36A023B1D2B3DD8236B022B05D063
:100C0800042B03D0062B01D0082B3AD1636B022B9F
:100C180005D0042B03D0062B01D0082B37D15C4A12
:100C2800136823F080731360FFF78EFD0546584B59
:100C38001B6813F0007F30D0FFF786FD401B0228A9
:100C4800F5D90320C7E040F26A215248FFF7A3FB19
:100C5800B3E74FF41D714F48FFF79DFBC1E740F222
:100C680075214C48FFF797FBBFE740F276214948CA
:100C7800FFF791FBBDE740F277214648FFF78BFB72
:100C8800BBE74FF41E714348FFF785FBBEE740F210
:100C980079214048FFF77FFBC1E73D4AD3683E49C9
:100CA8001940236A606A013843EA0013A06A43EADC
:100CB8000023206B4008013843EA4053606B40082A
:100CC800013843EA4063E06A43EAC0630B43D360F8
:100CD800136843F080731360D36843F08073D36064
:100CE800FFF732FD04462A4B1B6813F0007F06D13C
:100CF800FFF72AFD001B0228F5D903206BE000202E
:100D080069E0234B1A6822F080721A60DA6822F0D0
:100D18000302DA60DA6822F0887222F48032DA603C
:100D2800FFF712FD04461A4B1B6813F0007F06D02C
:100D3800FFF70AFD001B0228F5D903204BE000202D
:100D480049E0012B49D0124BDB6803F00301226A0A
:100D5800914201D001203EE003F0F002616A0139BE
:100D6800B2EB011F01D0012035E003F4FE42A16A75
:100D7800B2EB012F01D001202DE003F07842E16AA7
:100D8800B2EBC16F0AD0012025E000BF007000401F
:100D980000100240081500080C809F0103F4C001F0
:100DA800226B5208013AB1EB425F01D0012012E0F8
:100DB80003F0C063626B5208013AB3EB426F0ED086
:100DC800012008E001207047012004E0012002E032
:100DD800012000E0002002B070BD0120FBE70020E8
:100DE800F9E700BF1E4B9B6803F00C03042B33D0BC
:100DF8001B4B9B6803F00C03082B2FD0184B9B68E8
:100E080003F00C030C2B01D000207047144BDA6858
:100E180002F00302DB68C3F303130133032A11D181
:100E28001048B0FBF3F30E4AD068C0F3062000FB6D
:100E380003F00B4BDB68C3F3416301335B00B0FB8A
:100E4800F3F070470848B0FBF3F3054AD068C0F3E5
:100E5800062000FB03F0ECE70348704701487047A1
:100E68000010024000127A000024F400002800F06C
:100E78004881F8B504460D46036813F00F0F02D0F9
:100E880033F00F0304D040F21231A048FFF783FA81
:100E98000F2D12D89E4B1B6803F00F03AB4212D2E2
:100EA8009B4A136823F00F032B431360136803F066
:100EB8000F03AB4207D00120F0E040F21331934812
:100EC800FFF769FAE6E7236813F0010F6BD0636850
:100ED800013B022B18D86368032B1BD0022B39D097
:100EE8008C4B1B6813F4806F00F00D81FFF77AFFBD
:100EF800894B98423BD9874A936823F0F00343F023
:100F080080039360802733E040F22A317F48FFF75F
:100F180042FAE0E77F4B1B6813F0007F01D1012004
:100F2800BCE0FFF717FC7C4B98421AD9794B9B68B9
:100F380013F0F00F05D0236813F0020F13D0A36845
:100F48009BB9744A936823F0F00343F080039360DD
:100F580080270DE06F4B1B6813F4003FC6D10120BA
:100F68009CE0002704E0002702E0002700E00027BB
:100F7800684A936823F0030361680B439360FFF7A3
:100F8800E3FB0646634B9B6803F00C036268B3EB14
:100F9800820F09D0FFF7D8FB801B41F288339842B3
:100FA800F0D903207AE00027236813F0020F7CD0E1
:100FB80013F0040F04D0574A936843F4E063936036
:100FC800236813F0080F06D0524A936823F47C5321
:100FD80043F4E0639360A3687BB1802B0DD0902B22
:100FE8000BD0A02B09D0B02B07D0C02B05D0D02B0D
:100FF80003D0E02B01D0F02B51D1464A936823F05F
:10100800F003A1680B439360414B1B6803F00F0387
:10101800AB4252D8236813F0040F14D0E3685BB1D5
:10102800B3F5806F08D0B3F5A06F05D0B3F5C06FE6
:1010380002D0B3F5E06F58D1364A936823F4E063E1
:10104800E1680B439360236813F0080F15D02369F8
:101058005BB1B3F5806F08D0B3F5A06F05D0B3F5D9
:10106800C06F02D0B3F5E06F45D12A4A936823F4E4
:101078006053216943EAC1039360FFF7B3FE254B30
:101088009B68C3F30313254AD35C03F01F03D840BE
:10109800234B1860234B1868FFF712FBF8BD40F28A
:1010A80081311A48FFF777F9A7E7002FACD0194A22
:1010B800936823F0F0039360A6E7154A136823F0BA
:1010C8000F032B431360FFF73FFB0646104B1B68CB
:1010D80003F00F03AB429DD0FFF736FB801B41F2B4
:1010E80088339842F2D90320D8E740F2A331074861
:1010F800FFF751F9A0E740F2AA310448FFF74BF98E
:10110800B3E7012070470120C8E700BF08150008B1
:10111800002002400010024000B4C404B0150008CA
:10112800080000200400002010B5044628B1B0F5DE
:10113800007F02D0B0F5806F11D1002C3DD1414B1A
:101148001B6803F4C063B3F5806F0DD03D4AD2F835
:10115800803023F48073C2F88030002038E09E216C
:101168003948FFF718F9E8E7364AD2F8803023F40F
:101178008073C2F88030136823F4C06343F40073AB
:101188001360324B1A68322303FB02F3304AA2FB86
:1011980003239B0C013300E0013B2A4A526912F4F5
:1011A800806F01D0002BF7D1264B5B6913F4806F59
:1011B80001D100200CE003200AE0B4F5007F08D03C
:1011C800204A136823F4C06343F48063136000204B
:1011D80010BD1C4B1B6803F4C063B3F5806F08D0C7
:1011E800184AD2F8803043F48073C2F88030002067
:1011F800EEE7144AD2F8803043F48073C2F88030A6
:10120800136823F4C06343F4007313600F4B1A6828
:10121800322303FB02F30E4AA2FB03239B0C013388
:1012280000E0013B074A526912F4806F01D0002B9D
:10123800F7D1044B5B6913F4806F01D10020C7E735
:101248000320C5E700700040401500080800002092
:1012580083DE1B4310B50446C31E042B0FD80A4A6D
:10126800D36823F4E0631B041B0C240204F4E06439
:10127800234343F0BF6343F40033D36010BDA72179
:101288000248FFF788F8EAE700ED00E07815000863
:1012980070B505460C4616460F2A25D80F2C28D8B7
:1012A8001B4BDB68C3F30223C3F10702042A28BFE0
:1012B8000422191D062921D9033B4FF0FF3101FAF9
:1012C80002F224EA02049C4001FA03F326EA030628
:1012D8003443002D14DB2401E4B205F1604505F523
:1012E800614585F8004370BDBF210A48FFF753F8F0
:1012F800D4E7C0210748FFF74EF8D1E70023DCE721
:1013080005F00F052401E4B2034B5C55EBE700BF81
:1013180000ED00E07815000814ED00E00138B0F1A8
:10132800807F0AD2064B5860064AF02182F82310C3
:101338000020986007221A6070470120704700BF9C
:1013480010E000E000ED00E0054BD3F8882042F4FF
:101358007002C3F888204FF000629A60704700BF9F
:1013680000ED00E070B58CB0002409940A940B9449
:10137800344BDA6C42F00402DA64DA6C02F00402EC
:101388000192019ADA6C42F02002DA64DA6C02F017
:1013980020020292029ADA6C42F04002DA64DA6CB5
:1013A80002F040020392039ADA6C42F00102DA6416
:1013B800DA6C02F001020492049ADA6C42F002023A
:1013C800DA64DA6C02F002020592059ADA6C42F0ED
:1013D8000802DA64DB6C03F008030693069B4FF6F9
:1013E800FF7607960325089507A91748FFF700F821
:1013F80007950895099407A91448FEF7F9FF4FF4D3
:10140800806307930895099407A91148FEF7F0FF30
:1014180007960895099407A94FF09040FEF7E8FF52
:1014280007960895099407A90A48FEF7E1FF0423DF
:1014380007930895099407A90748FEF7D9FF0CB048
:1014480070BD00BF001002400008004800140048AA
:101458000018004800040048000C00480D48854664
:101468000D480E490E4A002302E0D458C4500433F4
:10147800C4188C42F9D30B4A0B4C002301E01360CB
:101488000432A242FBD3FFF75FFFFEF7E5FEFEF74B
:101498007AFFFEE700000220000000200C00002078
:1014A800C81500080C0000202C000020FEE70000F2
:1014B800F8B500BFF8BC08BC9E467047F8B500BF39
:0814C800F8BC08BC9E46704709
:1014D000447269766572732F53544D3332473478B2
:1014E000785F48414C5F4472697665722F5372632E
:1014F0002F73746D3332673478785F68616C5F671F
:1015000070696F2E63000000447269766572732FF4
:1015100053544D3332473478785F48414C5F4472BE
:10152000697665722F5372632F73746D333267342B
:1015300078785F68616C5F7263632E6300000000FF
:10154000447269766572732F53544D333247347841
:10155000785F48414C5F4472697665722F537263BD
:101560002F73746D3332673478785F68616C5F70A5
:1015700077725F65782E6300447269766572732FA7
:1015800053544D3332473478785F48414C5F44724E
:10159000697665722F5372632F73746D33326734BB
:1015A00078785F68616C5F636F727465782E630032
:1015B0000000000000000000010203040607080903
:0415C00041020008DC
:0415C4001902000800
:0C15C80001000000100000000024F400EE
:040000050800146576
:00000001FF
